:100000000C9454430C9482430C9482430C9482438A
:100010000C9482430C9482430C9482430C9482434C
:100020000C9482430C9482430C9482430C9482433C
:100030000C9482430C9482430C9482430C9482432C
:100040000C9482430C9482430C9482430C9482431C
:100050000C9482430C9482430C9482430C9482430C
:100060000C9482430C9482430C9482430C948243FC
:100070000C9482430C9482430C9482430C948243EC
:100080000C9482430C9482430C94824305A84CCD7B
:10009000B2D44EB93836A9020C50B9918688083CC2
:1000A000A6AAAA2ABE000000803F6E616E00696E9B
:1000B000660000000000003E5B4F5B3E3E6B4F6BF6
:1000C0003E1C3E7C3E1C183C7E3C181C577D571C39
:1000D0001C5E7F5E1C00183C1800FFE7C3E7FF00B2
:1000E00018241800FFE7DBE7FF30483A060E262900
:1000F000792926407F050507407F05253F5A3CE7C3
:100100003C5A7F3E1C1C08081C1C3E7F14227F2288
:10011000145F5F005F5F06097F017F006689956A53
:10012000606060606094A2FFA29408047E040810DE
:10013000207E201008082A1C08081C2A08081E1007
:100140001010100C1E0C1E0C30383E3830060E3EBF
:100150000E06000000000000005F0000000700071E
:1001600000147F147F14242A7F2A12231308646248
:1001700036495620500008070300001C22410000A9
:1001800041221C002A1C7F1C2A08083E0808008007
:10019000703000080808080800006060002010089F
:1001A00004023E5149453E00427F400072494949A0
:1001B000462141494D331814127F102745454539D2
:1001C0003C4A4949314121110907364949493646D6
:1001D0004949291E000014000000403400000008B6
:1001E0001422411414141414004122140802015959
:1001F00009063E415D594E7C1211127C7F494949E6
:10020000363E414141227F4141413E7F494949417A
:100210007F090909013E414151737F0808087F00A9
:10022000417F41002040413F017F081422417F402F
:100230004040407F021C027F7F0408107F3E414106
:10024000413E7F090909063E4151215E7F09192976
:1002500046264949493203017F01033F4040403F60
:100260001F2040201F3F4038403F631408146303A1
:10027000047804036159494D43007F414141020420
:10028000081020004141417F040201020440404027
:100290004040000307080020545478407F2844441D
:1002A000383844444428384444287F385454541837
:1002B00000087E090218A4A49C787F080404780032
:1002C000447D40002040403D007F10284400004114
:1002D0007F40007C047804787C0804047838444427
:1002E0004438FC1824241818242418FC7C0804041E
:1002F00008485454542404043F44243C4040207C87
:100300001C2040201C3C4030403C44281028444CD9
:100310009090907C4464544C4400083641000000A6
:10032000770000004136080002010204023C262347
:10033000263C1EA1A161123A4040207A38545455FF
:1003400059215555794122545478422155547840C9
:1003500020545579400C1E52721239555555593951
:100360005454545939555454580000457C410002A6
:10037000457D420001457C407D1211127DF028250B
:1003800028F07C545545002054547C547C0A097F45
:100390004932494949323A4444443A324A48483059
:1003A0003A4141217A3A42402078009DA0A07D3D0B
:1003B0004242423D3D4040403D3C24FF2424487E93
:1003C0004943662B2FFC2F2BFF0929F620C0887E7E
:1003D000090320545479410000447D413048484A83
:1003E00032384040227A007A0A0A727D0D19317D36
:1003F0002629292F28262929292630484D4020380A
:100400000808080808080808382F10C8ACBA2F10C8
:100410002834FA00007B000008142A142222142A2F
:100420001408AA005500AAAA55AA55AA000000FF60
:1004300000101010FF00141414FF001010FF00FF34
:100440001010F010F0141414FC001414F700FF0046
:1004500000FF00FF1414F404FC141417101F1010F4
:100460001F101F1414141F00101010F000000000C3
:100470001F101010101F10101010F010000000FFBF
:10048000101010101010101010FF10000000FF14BA
:100490000000FF00FF00001F10170000FC04F41410
:1004A000141710171414F404F40000FF00F71414C8
:1004B0001414141414F700F7141414171410101F44
:1004C000101F141414F4141010F010F000001F107A
:1004D0001F0000001F14000000FC140000F010F0CA
:1004E0001010FF10FF141414FF141010101F000040
:1004F0000000F010FFFFFFFFFFF0F0F0F0F0FFFF53
:10050000FF0000000000FFFF0F0F0F0F0F384444E3
:100510003844FC4A4A4A347E02020606027E027EC3
:100520000263554941633844443C04407E201E2008
:1005300006027E020299A5E7A5991C2A492A1C4CAD
:100540007201724C304A4D4D303048784830BC62B0
:100550005A463D3E494949007E0101017E2A2A2A28
:100560002A2A44445F444440514A444040444A514A
:10057000400000FF0103E080FF000008086B6B08EB
:100580003612362436060F090F0600001818000030
:10059000001010003040FF0101001F01011E001972
:1005A0001D1712003C3C3C3C0011150A00863965C1
:1005B0003925390431E330E330E330E338E338E31D
:1005C00038C338C340C340C340C340C340C340C323
:1005D00040C340C338C340C340C340C340C340C30B
:1005E00040C340E340C340C348E340C33033B5BEDB
:1005F000FFC651E340C340E348C340E340C340C3A8
:1006000040E340E340E340E340E340E348E348E3C2
:1006100048E348E340E340E340E338C338C328E31A
:1006200028E330E330C338453939D60E63716B8F18
:100630004A4A216508620862088721EF4A904271A0
:100640004A724A7242B24A91420F3ACD296B196AF4
:10065000192A190919E818C810C710E710E710E798
:1006600010E710E710E710E810E810E818E718089E
:100670001908190819081908190819081928192832
:1006800019281928194819482148194819481928BA
:1006900021482148214821282128212821282128B2
:1006A00021482148216821682168218929A63986A5
:1006B0003945390431C330C228A228C230C230A221
:1006C00030A230A238A238A238A238A238A238A26A
:1006D00038A238A238A238A238A238A238A238A24A
:1006E00038A238A238A238A240A2388228CA6A9D0D
:1006F000F7AE8BA230C240C340A238A238C240A29B
:1007000038A240C238C240C240C340C340C340C305
:1007100040C340C340C340C338C338C338C230C2EB
:1007200028C228A228A230043118CEAC528D4A9299
:100730006B2E3A2A1143002100A921314BB14230DE
:100740003ACF31CE29EF292F32303AEF318C194B85
:10075000110A19E910C810A708A708A608A608A634
:1007600008A610A710A708A708A710A710C710C7AA
:1007700010C710C710C710C710C710E710E710E761
:10078000100719081908190819081908190819086B
:10079000190819071908190719E718E71807190898
:1007A00019081927192719282128214821A731A616
:1007B0003186392431E328C328C228C228C230C276
:1007C00030C230A238A238C238C230C238C238C2B1
:1007D00038C238C238A238A238A238A238C238C2C9
:1007E00038C238C240C240C240C240A23803319928
:1007F000DE79DE0339C340C240C340C340C348C3AF
:1008000040C348E348E340E340E3480349E3480387
:100810004904490449044104410441E348E338E3FD
:1008200038C330C330C330243138CE8A524629D33E
:10083000733153902A8A21A508EB21114B134B9158
:1008400042EF31AD218C21EE29303A303AEF296C5C
:10085000192A190911C810C710A708A708A608A6C1
:1008600008A710A710A710A710A710A710C710C798
:1008700010C710C710C710C710C710E710E810E85E
:1008800018081908190819081928192819281928E1
:100890001908190719081907190719071907190756
:1008A00019081907190719271927194821A729A76E
:1008B00031A63145310431C330C230C230C230C2FA
:1008C00038C238C238C238C238C230C238C238C260
:1008D00038C240C240C240C240C240C240C240C210
:1008E00040C238E348C248E340E340E348C23071C5
:1008F000A47CF72862E340E348E3400351E350035C
:10090000510351045124512451245124514551453E
:1009100051455165516551654965516559454925AF
:10092000410439E430E328443117CEAA62C3184C9D
:100930004A3574523BB042AB29903A33431343D209
:1009400042703AED29AC21AC29EE395042303AAE32
:10095000214B190A11C810C810A708A708A710A78B
:1009600010A710A710A710A710A710A710A710C7AF
:1009700010C710C710C710C710E710E810081908F3
:1009800019081908190819281928190819281928DF
:100990001908190719071907190719E718E718E7B8
:1009A00018071907190719071907194821862986F1
:1009B00029863145310331C330C230C238C238C212
:1009C00038C240C240C240C240C238C240E240E3E6
:1009D00040E348E348E348E348E348E348E34803A7
:1009E0004903490359E3500349034903590349277C
:1009F000627CF791AC244944512451245924694420
:100A000061446165616561656185618661A661A614
:100A100061C761C761E761E861E761076AE761A7EC
:100A200059664925390431653917CEAA6AC32005AC
:100A30002951631564735BB1421343544B3343F242
:100A400042B03A2E2ACC216B218B290E3A513AEF33
:100A5000296C212A19E910C810C710A708A710A7E8
:100A600010A710A710A710A710A710A710A710A7CE
:100A700010A710C710C710C710E710E81008190812
:100A800019281928192819281928190819081908BE
:100A90001908190719071907190719E718E718E7B7
:100AA00018E71807190719071907192821452945B3
:100AB0002925310431E330C338C240C240C248E284
:100AC00048E248E248E348E348E348E348E34803B0
:100AD000490349034903510351035103592359233E
:100AE0006123612361446123514461246944616449
:100AF0004978DEB9E6C659645165618571857985A5
:100B000071A571A671C671C671E771E771E77908C1
:100B10007A287A497A497A6A726A728A7A8A724A31
:100B20006AE959A7496641A64138D6AA72E430A4B9
:100B30002027295163F57394631343544B544B128C
:100B400043D13A4E2AED2929190819AC31303A100F
:100B500032AD214B190A11E910C810A708A710A738
:100B600010C710A710A710A610A710A710A710A7AE
:100B700010A710A710C710C710E710E81808190829
:100B800019091928192819281928190819081908DC
:100B90001907190719071907190719E718E7180797
:100BA0001907190719071907190719272165292591
:100BB000292431E430C338C238C240C248E348E394
:100BC00050E350E350E350E3500359035103510401
:100BD000512449244924492451245124612469443D
:100BE000714471436964714361647144714469641F
:100BF000610E9C7CFF6B8B8559A571A681A581C672
:100C000081C681C681E679077A07822882288228F0
:100C10008249826A828A82AA82AB82AC7ACC72AB27
:100C2000726A6A0862A751C75118D60C730431C49E
:100C300030C5284731105B157474539553744B338A
:100C400043F1426F32ED29E810850849210E3A2F11
:100C50003AEE296C212A190A19C810A708C710C72B
:100C600010C710A710A710A610A710A710A710A7AD
:100C700010A710A710C710C710E710E81808190828
:100C800019291928192819281928190819081908BB
:100C9000190719E718071907190719E718E718E6D8
:100CA00018E618E718E718071907192721663145CC
:100CB0002924312439E340C340C340E348E348E3F7
:100CC000500351E350035103590359035124516513
:100CD000516549654985498651855965616469440D
:100CE00071648164796471647164716471847985FB
:100CF0007147725BFF93C58459A579C681A581C6EA
:100D000089C681E681E681078207820782088228F8
:100D100082498A498249826A826A828C728B72AB6A
:100D2000728A72286AE761085A59D68F8346390554
:100D3000310539E4304729547CD463B45B94535370
:100D400053F142903ACD29E71044000719EC316F76
:100D5000422F32AD214B192A19E810C810C810C80B
:100D600010C710A710A710A710A710A710A710A7AB
:100D700010A710A710C710E710E8100819081908E5
:100D800019291929190819281928190819081908D9
:100D90001908190719071907190719E718E718E7B4
:100DA00018E718E718E718E718E7182721863165CC
:100DB00029453145390439E338E340E340E3400352
:100DC000410349034923492451045124516551A643
:100DD00051C749E749E749E851C751A659656164D8
:100DE0006964796471647164796471647164716453
:100DF000718561D5D5FAEEE66185718579A571A514
:100E000079A579A671C671C671C671C771C779E730
:100E100079E779E879E879087A0972EA692A6A490A
:100E20006A496A286AE7694A6A7ADE7394873146B2
:100E300031253965414529B8ADD36B156CD4637341
:100E400053124B913A0E32E7102200C510AA294ED8
:100E500042503AEE298C212A19E910C810C810C84E
:100E600010C710A710C710A710A710A710A710A78A
:100E700010A710C710C710E710E8100819081908C4
:100E80001908192919081908190819081908190839
:100E900019081908190819071907190719E718E790
:100EA00018E718E618E618E618E6180721A73186AD
:100EB00031663145310431C330E3302439243924DB
:100EC000394441444144412441244945418641C774
:100ED00041C739C839C839E841C749C6518559643D
:100EE00061646944614369437123694461446924CD
:100EF0006944612B8B7CFF8C93245944618569651F
:100F000061656185618561856186616661866186ED
:100F100061866986698669866187698861A859C71B
:100F200059E761C661A7616A6A7AD694948729678E
:100F300031663965418539F8BDF3731574156CD484
:100F400063945BD2422F32E7100100830826212CE4
:100F50003A90424F3AAD292A190911E910C910C82F
:100F600010C810C710C710A710C710A710A710A748
:100F700010C710C710C710E810E8100819081908A2
:100F8000190819081908190819081908190719085A
:100F90001908190819081908190719E718E718E7AF
:100FA00018E718E618E618E618C61807198629661D
:100FB0002945292429E328E328243144316539656A
:100FC000398539863965394539243945398639A70E
:100FD00039C839C831C831E839C841A749654944D9
:100FE000512451235123592361036123512459046E
:100FF000610451C661B9E694C524412449244924B9
:1010000049254945494541454145414549254925E8
:101010005145514551455145512651275146496643
:10102000496549655166494A5A7BD6738C8729665A
:101030003166314529C639D8B514743674356C1506
:101040006CB45B124B4F3AE61001002100C410EB68
:1010500039B142B1420E324B210A190911E910C9C6
:1010600010C810C810C710C710A710A710A710A746
:1010700010A710C710C710E810E810E818E8180803
:10108000190819081908190819081907190719075B
:101090001908190819081908190819E718E718E7AD
:1010A00018E718E618E618E618C61807194529259E
:1010B000210421E420C320E32004292529453165AA
:1010C000316631663166312529243125296631871B
:1010D00031A831A831C931C939A8398741454124DE
:1010E0004124410349035103510351034904490475
:1010F00051E4502449F3ACFBE6C649E33804390413
:10110000310431043104290429043104310439043F
:101110003905412541254925492549264925414586
:1011200041454145414539AB5ADCDEF49C873125C8
:101130002925290421E739B8B5F4737774767476D4
:1011400074146453534E3AE618010000008310896A
:10115000316F42B14A4F3A8C212A190A19E910C954
:1011600010C810C810C810C710A708A710A710A74C
:1011700010A710C710C710C710E810E710E810E854
:1011800010E810E810E810071908190819081908DC
:10119000190819081908190819E718E718E718E7CE
:1011A00018C718E618E618C618C61807192529051D
:1011B00029E420C420C320C320E42804292529458C
:1011C00031663167396731252904290529252946E2
:1011D00029672968316831683967394639243924E3
:1011E00039244103410349035103490441E440E4E4
:1011F00048E448E338AA6A3CEF6D73C32804390514
:1012000021052105210529052905290529E428E4C9
:1012100030E4300539054125412541254125392551
:10122000392539253125290D633DE776AD66310431
:1012300029E420C310EC5A5484B04A5353D4633485
:1012400064D35B124B0D32E61001002008821006B9
:1012500021CD316F424F42AD296B212A19E910C9C6
:1012600010C810C810C808A708A708A708A710A783
:1012700010A710C710C710C710C710C710C710E7B6
:1012800010E710E710E710E7100719071908190809
:10129000190819E818E818E818E718E718C718C770
:1012A00018C718C618C618C618C61807192629055B
:1012B00021E520C420C418A418C418C418E51805D2
:1012C0002126212621062105210421E420052926A5
:1012D00029473167294729673146312531043104CF
:1012E0003165410439E3380441E338E438E438E453
:1012F00038E438C33066397AD655AD042904292636
:10130000294629462967296729462946290529E4C6
:1013100028E4280431053105310531042904290563
:101320002904290429E4206E637EEF97B52529E47A
:1013300020C31883104E6B8831E71828198A21CAF8
:1013400029A9212819C5106208000020088310C5AA
:10135000186B21ED312F3ACD296C212B190A11E997
:1013600010C810C810A808A708A710A710A710A792
:1013700010C710C710C710C710C710C710C710C7B5
:1013800010C710E710E710E710E710E710E718E8BC
:1013900018E718E718E718E718E718E718C718C795
:1013A00018C718C618C618C618C618071927192747
:1013B0001969218A29AB29CB29CC29EC292D324E58
:1013C0003A4E3A0C3269210719C418C418E428258A
:1013D000316631662986296629662946310429E461
:1013E0002866394639E430E430E430E430E430E46F
:1013F000300431C328C320729C3DEF4A4A25212680
:1014000029472968318831883167296729252904C6
:1014100021E420042105210521E518C410C418E4A5
:1014200018E318E318C3106E63BFF797ADE418C450
:1014300018A31083108C52C41842086310821062E3
:1014400008420841082008200020000000A5106A7A
:1014500031AC29CC294F3A2E32AD214B190A11E972
:1014600010C910C810A810A710A710A710A710C760
:1014700010C710C710C710C710A710A710C710C7F4
:1014800010C710C710C710E710E710E710E710E704
:1014900018E718E718E718E718E718E710C710C6A5
:1014A00010C610C618C618C618C61807196E32AF6F
:1014B0003A314B524B524B734B9453F5631664368F
:1014C0006C366CB45B334B8F3A8829E518C4180529
:1014D000292629662967296729462925290529C436
:1014E00028E42886410431C328E428E430C328E3F3
:1014F00028E428E428C32029527EF7B7BD662926B0
:10150000296731883127296729873126210521E478
:1015100020E4200421E420E420C418A410A310A394
:1015200010C318C318A2102D639EEFF49CC418A317
:1015300010831083104A4A252163084208620883F9
:10154000106208210041082000000041004829CD18
:1015500039EE314F3A9142703AEE296B192A19E966
:1015600010C910C810A710A710A710A710A710A780
:1015700010C710C710C710C710C710C710C710C7B3
:1015800010C710C710C610C710E710E710E710E724
:1015900010E710E710C710C710C710C610C610C656
:1015A00010C610C618C618C610C6100719B44BB519
:1015B0004BB44B73437443B54B165C586458641773
:1015C00064B6539553964B95533153EC310719C577
:1015D00018062146214621462926290521E420C452
:1015E00020A42004310431C320C328E3280431C3DC
:1015F00028C328C328E4282529D8C59FF7AB52471C
:10160000292629672947296729672946290521E4C9
:1016100020E420E420E420E420C418C410A310C374
:1016200018C318E318C3102D639EEF938CE418C4FD
:1016300018A318E4206A4A252162082100A3108B10
:101640004A05214208210021000000420029292AE0
:1016500029AD295042B24AB24A2F326C212B1909C6
:1016600011E910C810C710A710A610A610A710A740
:1016700010A710C710C710C710C710A710A710A732
:1016800010C610C610C610C610C610C610C610C6AA
:1016900010C710C610C610C610C610C610C610C699
:1016A00010C610C610C610C610C610E618543B541B
:1016B0003B543B5443B64B5864796C586C1864B730
:1016C0005B364BF542D5421543744B74536F3A4920
:1016D00019071127192721472946210521E420C48C
:1016E00020C428A3202531E428C320C32045390481
:1016F00031C320E320C320C3181084BFFF35A56782
:101700003147296829672947294721A8310521E45C
:1017100020C318E420E420E420E420C418C418C442
:1017200018C418E418C3184D639EF7728C0421E4A2
:1017300020C4182529AB52E418821062088629F0CB
:101740007319C6ED5A4108000001004200C718C9CC
:10175000182B210F3AB24AF352513A8D214B190AF4
:1017600011E910C810C710A610A610A710A710A73F
:1017700010A710C710C710C710C710C710A710A711
:1017800010A610A610A610C610C610C610C610C609
:1017900010C610C610C610C610C610C610C610C699
:1017A00010C610C610C610C610C610E61854433432
:1017B0004334439553176479747974F86B7653F511
:1017C0004AF54AF54AD54AD542F43A5543544B5066
:1017D000324A1907192721272146210521E520C46E
:1017E00020A428C420E4206639A218A3202531258E
:1017F00031C320E320C320C320C8413DE71CE72AB2
:1018000042A831A931682968296829C9392521E404
:1018100020C318C420E420E420E420E520E520E4EF
:1018200020E418E418C3184D6BBFF7728C25290407
:1018300021C31866316A4A041982088310AB4AFC36
:10184000DEBFF70D634208210021004308A710679F
:1018500010C9108D295142B34A7142CE296C210A18
:1018600019E910C810C708A608A610A710A710A746
:1018700010A710C710C710C710C710C710A710A710
:1018800010A610A610A610C610A608A608A608A6A0
:1018900010A610A610A610C610C610C610C610C6F8
:1018A00010C610C610C610C610C610E61813433472
:1018B0004B955B176C997C787CF7735663155BF5D9
:1018C00052F552B54AB542B542B532B432153B3441
:1018D000432F32492107192721262125212521C4FB
:1018E00020A320C320A31845312529A318C32024F1
:1018F00029C320C320C320E420E420B7BDDFF7F2D2
:101900007BA931A931A9298929A931C9312521E426
:1019100020C318C420E420042105210521E520E589
:1019200020E4200419C3184E6B9EF7518C0421E368
:1019300020C318C741494A04218310051976ADFF19
:10194000FFF49CA3102100210001002200861067F3
:101950000887080A19AE31313A7242303A8D212B8C
:10196000190911C810C710C710A710A710A710A7F2
:1019700010A710A710C710C710C710C710C710A70F
:1019800010A610A610A610A608A608A610A608A6BF
:1019900008A610A610A510A610A610A610A610A6A0
:1019A00010C610C610C610C510C510E618134B950A
:1019B0005B3774587C3874B663355B1553F452D476
:1019C0004A9442743A953A953A75329532D5323600
:1019D00043144BCD3107192721462146212521E407
:1019E00018E428C318C318E420C741C318C320E46F
:1019F000200429C320C318E420E4184D6BBFF73A34
:101A0000C6C939A93189296821682967290521C4EE
:101A100018C318C318E420E420E420E420E520E4FF
:101A200020E5182521C4182D639EF7308C0421C3AE
:101A300020C320294AE941C418A3184E6BBFF7D828
:101A4000BDE418410841082000010043086508462C
:101A500008460887082B21EF3171427142EF316C43
:101A6000212A19E910C810C810C810C710A710A75C
:101A700008A710A710A710C710C710C710C710C716
:101A800010A610A610A610A608A608A608A508A5C8
:101A900008850885088508A510A510A610A610A61B
:101AA00010A610C510A510C510A510E618955BD797
:101AB0006B1874D76B755B1453F44AD44AB44294D0
:101AC0003A7432743275327532553275329532D578
:101AD0003A354B91422819E618261925190419E4BC
:101AE0001805290529C318C31866318631A318C300
:101AF000208739E420C320E420E4188631FCDE3E50
:101B0000E70E5B8829682968214721A9310519C496
:101B100018C418C418E4200421E420E420E420E5DB
:101B20001805210A3A05190C5B7EF7F0830421C3DE
:101B300018C318AC62E94105214B4A3DEFDBDE4595
:101B40002941084108210820002100420865084673
:101B50000866086608C8108D295142B2427142AE2B
:101B6000294C210A19EA18E910C810C810C710A793
:101B700008A710A710A710C710C710C710C710C715
:101B800010A710A610A608A608A608A608A50885EE
:101B9000088508850885088508A510A610A610A642
:101BA00010A610A510A510A510A510E618D76BB7A4
:101BB0006396631553D44AB4429442543A5432540F
:101BC000325432553255325532553A553275329576
:101BD00032F542144BAC29C61005190419E418E477
:101BE00018C3186631E420C3180421E841E420A397
:101BF000186631A739C318E420E418E42034A5DFBF
:101C0000FF16A58829882968294721EA390621E491
:101C100018C418E420E4200421E4200521E420E590
:101C20001867292F6346210D5B7EEFEF832429047B
:101C300021E420A7398739A8395BD65EF7D083A382
:101C400018410821082108200000004208650866A4
:101C5000086608460887082B212F3AB24AD24A3034
:101C60003AAD294C212B190A19C910C810C810C740
:101C700010C710C710C710C710C710C710C710C7AC
:101C800010C710A710A710A608A608A508850885E4
:101C900008850885088508850885088510851085CC
:101CA000108510A510A510A510A510C61855631510
:101CB0005BF552B44A7442543A343A143234321412
:101CC000323532353255325532553A5532753275D4
:101CD00032D53A5553B1422819061905190419E4A9
:101CE00018A31804214529C318A318C841A739A36C
:101CF00018C3188B5A0421C318E4200421AA52DF08
:101D0000FF5ACE2B42A931882988292B422621054A
:101D100021E418E420E4200421E420E418E418E598
:101D2000188829906387210D5B7DEFCF7B252904DF
:101D30002125292621A839B8BD9FFF36ADA73962D4
:101D400010410821082008200000004208651066A4
:101D500008660866086708E918CE31924AF352D33C
:101D60004A303A8D294C212B19E918C910C810C8DE
:101D700010C810C710C710C710C710C710C710C7AA
:101D800010C710A710A710A608A608A508850885E3
:101D900008850885088508850885088510851085CB
:101DA000108510A510A510A510A510C6183563F450
:101DB00052944A5342333AF331D329F431F429F49B
:101DC00029F4311432343255325432553276327568
:101DD00032B53A364B544BAB21061925210521E487
:101DE00020C418C3180429E420A318E420294A2594
:101DF00029A318E8418A52C318E320E31886319AD0
:101E0000D67EEFB0738829A929C9318C4A262105CD
:101E100021E418E418E4200421E42005210521052B
:101E200019E931D58C0A32CC4A7EEFEF7B24292583
:101E30002966296729D49C9FF7D9BD4A4AA2104137
:101E400008210821082008200020004200650867BA
:101E500010670867086708A8104C21303AF352341D
:101E60005BD34A303AAD294B210A19E910E810C872
:101E700010C810C710C710C710C710C710C710C7A9
:101E800010C710A710A710A610A608A508850885DA
:101E900008850885088508850885088510851085CA
:101EA000108510A510A510A510A510C6185563F42F
:101EB000529342323AF231D229D329D321B321D3DA
:101EC00029D329F4311432343254327532753296B2
:101ED00032B632153BB6532E2A061906210521E4E7
:101EE00020C418C318E4208739C320A318C841C8E8
:101EF00041C31825290C634529C318042124215105
:101F000084FFFF56A58831882988298C4A2621E537
:101F100018C418C418E4200421E42025210519055B
:101F200019EE4A9CC60E4BAB427EE7AE734529259F
:101F3000216629D1739FEFB8B5B073A31061084132
:101F40000841084108200820002000220065086898
:101F5000106808681088088808C918AE31B24A3479
:101F60005B545BF34A2F3AAD296B212A190919E911
:101F700010C810C810C710C710C710C710C710C7A7
:101F800010C710A710A710A610A608A608850885D8
:101F900008850885088508850885088508851085D1
:101FA0001085108510851085108510C6183353F2E2
:101FB00042B3427232F229D121B2219219B221B236
:101FC00021D329132A33325332542A7532553276AB
:101FD00032B632F532D753903227190621E520E484
:101FE00020C418C318C32025318739A318C4208BF7
:101FF0005A0529A3182952AB5AA318E420E4204912
:102000004ABFF79BCE4B42672988296C4A2621E5B7
:1020100018C418C318C418E420E420E418E418E530
:102020001054747FDFF26B6B425DE76D6B0421042B
:1020300021AC525EE759C6EC5A8B4A8208610840CF
:10204000004008410821082000210023006608689C
:1020500010681068108810880888102B210F3AF338
:102060005295639563D24A2F3AAC294B210A19093C
:1020700019E910E810C810C710C710C710C710C75B
:1020800010C710C710A710A610A610A610850885A7
:1020900008850885088508850885088508850885D8
:1020A0001085108408840884088508C510F34AB395
:1020B00042933A733A3232D129912192219221B33B
:1020C00021D329D429142A34323532553256327666
:1020D00032B63AF63AB753124328190619052104C5
:1020E00021E420C418A318C418C839252983106610
:1020F00031294AA31846290D634529C318E41885D8
:1021000029F8BDBFF79173682989298D422621E4FA
:1021100020C420C318C418C418E418C418C410C4B8
:1021200010F58CDFEFB3846A427DE76E63E418E953
:10213000395ACEDDDE6B4ACC52A7316210420841DB
:10214000084100410821002108200021006508877E
:102150001088108910891089108910CA106D297192
:1021600042545BD563945BF24A0F328C294B210AAF
:1021700019E918E810C810C810C710C710E810C730
:1021800010C710C710C710A610A610A610A610865C
:1021900008850885088508850885088508850885D7
:1021A0000885088508850885088508C510D34293E9
:1021B0003A733A523A3232F22991217221922193A2
:1021C00021B321D429F429142A352A5632563297BC
:1021D00032D73A3743D75B74534819E510252104A9
:1021E00019E420C318C418A3184629094AC420A317
:1021F000188B5A04218210AB5A8A52A318E418246F
:1022000019AE73FFFFF7AC8931AA29AD4A26210424
:1022100021E420C320E418C418C418C410C410E476
:102220001073849FE7B384AA421CDF4E63462936AD
:10223000A57FF7F28366296A4A0421A318E42041A6
:102240000840004100200021082000210064088788
:1022500008880889108A108A108A10AA100C19CFD1
:1022600031D24A9463B563535B9142EE31AC294B52
:10227000210A19E818E810C810C710C710E810C7DD
:1022800010C710C710C710A710A610A6108610A65A
:1022900010860885088508850885088508850885CD
:1022A0000885088508850885088508C51093427249
:1022B0003A523A52323332F231B229922172219398
:1022C000219321B321F429142A342A55327632B6C7
:1022D00032F73A574BF863B45B281927190519E50B
:1022E00020C418C318A318C318A318A639A639A266
:1022F0001824296A52A21845290C6B2429C31803F3
:1023000011283A1DE7DCDE2C428821AD4A2519E46C
:1023100018C418C318E418C410C410C410C410C4DE
:102320001090635EDF93846A425DE76E63D0737ED4
:10233000F7B4942A4A4629831041086631873961E7
:1023400008200041002000200820002100640887A8
:10235000088A088A088B108B108B10AB10AB102DDD
:1023600021103A135395639563135B914AEE318CB8
:10237000294B210919E810C810C810C810E810E846
:1023800010C710C710C710A710A610A6108610A659
:1023900010860885088508850885088508850885CC
:1023A0000885088508850885088508C510723A32B1
:1023B000323232323233321332D3299221722172C5
:1023C000219321B321D429142A342A552A9632D7AD
:1023D0003A1743774BF75BD55B69192719A829E5AD
:1023E00018C418A318C318A31882100421294A047A
:1023F00021A318084246296210AB5AE841A310E411
:1024000010251936A5DFFF706B8829AD4226190506
:1024100019C418A310A410C410C410C410A408A494
:10242000082F5B3EDFF494AB4A1CDFD3943DE7B743
:10243000B5C839C93905192100A3188639C3182030
:1024400000200020002000200820082100440887E8
:10245000108A088B10AC10AC10AC10AC108A08CBF2
:10246000106E295142145B956B956B135B7042EEB5
:10247000316C210A19E918E810C810C810E810E8F2
:1024800010C710C710C710A710A610A610A610A638
:1024900008860886088508850885088508850885D2
:1024A0000885088508850885088508C5103132111A
:1024B00032113212321232F331D329922172217247
:1024C000199321B321D429142A542A752AB632F734
:1024D0003A5743B74B386494534919C5088929A919
:1024E00029A410A31083108210831083106729A8D9
:1024F00031A310E5184B42830826210E5B0519060F
:1025000011061150639FEF98AD2A3AEE4A88216870
:10251000192719E618E618E61006110711271947BA
:1025200019B1631DD777A5B06B1DDF5DE79ACE4A61
:102530004A6629E94167292521652925292108209D
:1025400000400020002008200840082100430887A0
:10255000106B088C10CC10AC10CC10CC10AB10ABA6
:1025600010EC188F31724A3463B573B56BF3527047
:1025700042CE314B210A190919E918E818E810C8A8
:1025800010C810C710A710A710A610A610A610A656
:1025900010861086088508850885088508850885C1
:1025A0000885088508850885088508A610F131D1B9
:1025B00029F129F1291232F329D3299321722172A9
:1025C000199321B321D429142A542A9532D63A37A3
:1025D00043984BD853796C33430811E71007112CFB
:1025E0003A4821A410C510C510E510E5102719CFF1
:1025F0004AAA2969216D3A8E422819B363EF4ACC61
:10260000210D2AAF42BCCE3EDFEF5291636E320DF8
:102610002A0E2AED31ED310D324E326E32AF3AAF25
:102620003A957C1ED73ABEB48C3EE75EE7F17BC498
:1026300018E4186B4A252104190421410821084196
:10264000004000400021082008410821004300A765
:10265000108B10AC10CC10CC10EC10EC10CC10ABDC
:1026600010CC102D21CF31B252946BD5737463D23C
:102670004A503A8C292A190A1909190919E918E83E
:1026800010C810C810C710A710A710A610A610A633
:1026900010A610A608850885088508850885088580
:1026A0000885088508851085108510C610D029D1A9
:1026B00029F129F129F229D229D329B221722172D3
:1026C000199321B321D429352A7532B63A17439884
:1026D00053F95B5964B96CD23A6A196A198A19AB11
:1026E000212D326A2169196A19AB21CC29ED294FB4
:1026F00032B45B4F32F13A1564F142F13A78749298
:102700003AB13AB03ADAAD9FF77584146C3243505F
:102710002A512A713A713AB13A1243123B324311AB
:1027200043B67C1ED75BBEB9AD9FEF77A5A731A39B
:102730001046296E6B2521210041082108210841FE
:10274000084000400021082008400821002300A77D
:1027500010AC10CD10EC100D190D19ED10ED10CDC1
:1027600010CC100D198E295042535BF56BB56B33AD
:102770005BB14AEE318C214B212A192A19E918E85C
:1027800018E810C810C810C710A710A610A610A6E9
:1027900010A608A608850885088508850885088587
:1027A0000885088510851085108510C610B0299001
:1027B00021B121D129F229F229D329B2217219722A
:1027C000199321D429F4295532B63AF742B853194E
:1027D00064BA74FB7C5864702AAD19AC19ED21CC35
:1027E000212E2AB03ACC21ED210E220E2A502A2F7A
:1027F0002A754B34439132175C175C712AF75335B5
:102800004B7132123B76745EE75CC6156CF13A711F
:102810002A922A512A933AB23AD33A133B123B12E4
:10282000437674BDC61ED71ED7BFEF748467298B4D
:102830004AC8312521A31041084108410821082038
:10284000004000200041082008200821002300A8A3
:1028500010CD18EE180E192E192E190D110E11EE9D
:1028600010ED10ED104E21EF31D24A9463D56BB4C8
:102870006312537042CD296B214B212A1909190982
:1028800019E810C810C810C710C710C710A610A6A6
:1028900010A610A608A608A608A608A608860886F8
:1028A0000886088510851085108510C610B0219007
:1028B000219021B121D121D229D329D32192217272
:1028C00021B321F4293532553AD6425853B85BBB6F
:1028D0007C3C8D3B85B653302AEE21EE210F22EE53
:1028E00021EE21D23AF2422F2AEE210F22712AB292
:1028F00032D332175CB22AD6539964F33AD33218E2
:102900005C512AF132B2537CBE5FDFB7848F2A2F2D
:1029100022B22A9232B332B332D3321433133B127F
:1029200043356C7CC69FEF1DD73EDF74844B42CC91
:102930005246212521C31882084108410841084117
:10294000086108610841082008410821002300C9E6
:1029500018F0180F210F192F192F190E190F19EE32
:1029600010EE104F190D19F031924294631574D581
:102970006B946312534F3AAC296C294A212A1909E6
:1029800019E818E818E818E810C710C710A710A62B
:1029900010A610A610A610A610A610A608861086CF
:1029A0000886088510851085108510C610B0217026
:1029B000199019B121D121D221F329D2219221924A
:1029C00021D3291432553A96421753995B196CFB5F
:1029D000847C95FA7CF33A2F2A502A2F222F220F3B
:1029E00022EE21EE219553D23AEE212F2A502A9140
:1029F00032B2323443B54BF23AF9745343B132B682
:102A0000537443AF2A345C36859FE77CBE2D2AED94
:102A100019B12AD232D232D232133BF332333B12C3
:102A200043B463DDCE5EDF589D1ED7537CCD520D7F
:102A30005B083AA731041982104108410841084156
:102A40000861084108410841082000210003000BEB
:102A500021322132213121302130190F1930192F23
:102A6000190E196F21F1297342B342545B1474F4A7
:102A700073D46B525BF1524F3ACD318C294A212AE3
:102A800019091909190819E818C710C710C710C77C
:102A900010A710A710A710A710A610A610A608A68A
:102AA0000886088610861086108610C610B0217021
:102AB000199019B119B121F221132AD221B221D3CF
:102AC00029132A5432B53AF74A5853D963DB7C5C50
:102AD0008D9C95D65B4F2A2F2A2F2A0F2A0F220F63
:102AE000220F22EE292E32576C913A2F2A7032B1E2
:102AF00032D13AF23AB553534B3985F87CD03AF299
:102B00003AF55B8E2A7885746CFDCE3ED7F0422D67
:102B10002AD132F12AD12AD232F33A143BF23A5373
:102B200053F78CBFEF9BC6B58C1EDF337CAC4A8B52
:102B30004AC73965290421A21041084108410841CA
:102B40000840004100410821082100210023008E97
:102B500031942973295221512130212F194F218F6E
:102B600021B029523AD34A9242713A3253B26BF3AE
:102B7000731474B36B7363F1524F42ED318B296B55
:102B8000214A214A2129190919E810C710C710C77D
:102B900010A710A710A710A710A710A710A610A67F
:102BA00010A610A610A61086108610C718B12170A6
:102BB00019B119D121D121F221332A132AF229F393
:102BC000295432953A164B7853F9639A741B851A37
:102BD00085D97CB03A4E2A2E2A0F2A2F2A0F2AEEA8
:102BE000210F2AED290D2AD14277744F322F2A91D5
:102BF0003AB13AB13A534BB353BA9DDB9D7253D1BC
:102C00003AD45B3143798D135CB99D5FDF357C8F9E
:102C10003AF13AD132D12AD232B232F342124BD403
:102C200063BDCE5EE77BC61595FDD6527CCC52299E
:102C30004A042924292429C3186110410841084164
:102C40000841084108410821084108210044085171
:102C5000421532D4299229922991299029AF29CE5F
:102C6000292E3A11538F42CC29EC292D3ACE4A50C5
:102C70006375847584D4737363F1524F42ED31AC44
:102C8000298B298B216A212A19E918C810C810C775
:102C900010C710C710C710C710A710A710A710A7FC
:102CA00010A710A610A610A610A610C718D2219122
:102CB00019B119F221F221122A532A543233325413
:102CC00032B53A164BB85B19647A649A6CFA74BCE4
:102CD000951CA632430D222E2AEE290F2A0F2AEE2A
:102CE00029EE29EE29CD292E32945B16642E2A90E6
:102CF00032B13AB03AF13A524B18857CB69674909C
:102D00003A534B324B3885925351537FE79AB5D0A3
:102D100052F142F232D232B232D33AF242324B1B49
:102D2000B67BC6F9B59BCEF4941CD7327CAB52E887
:102D300041C320C2200321E3188210411021084121
:102D4000084108210041084208410842004A21F494
:102D500052963A553AF431F331B1294D212A19E707
:102D6000106D3A0A32E51005110619472167210F47
:102D70005B958C968C347CD4737363D1524F422E06
:102D80003AED31CC298B294A210919E810C810C81D
:102D900010C710C810C710C710C710A710A710A7DA
:102DA00010A710A710A610A610A610E718F221B1C0
:102DB00019D2211222332A533274329432943AF6C1
:102DC000425753B85B3A747A743A5C79641A7DBBA3
:102DD0008D9FD79DB61143EC29ED29EE29EE29EE02
:102DE00029CE21AC218C21CD29AC21B453534B4F9A
:102DF0002A6F3290324E322D2AD45BDEC6D363D195
:102E000042ED294E32598D9253AA29BED65CD68FF7
:102E10004A2E324F2A0F220F2AEF29ED29188D7CD6
:102E2000C62F5B56A57AC6527CDCD6B06BCB52A6B9
:102E300039A220C220E320C318A21861104110411A
:102E400008400841082108410841082621F573B7C8
:102E50006B1743D642543AF2314D2187084400475C
:102E600019CC4AE4108208C4104519A410E518F2E0
:102E700073958C547C75845584D4735363F152904C
:102E80004A4F3A0E32CC316B210919E810E810E8AC
:102E900010C810C810C810C810C810C710A710A7B5
:102EA00010A710A710A710A610A610E718F221D29D
:102EB00019F2213332B33AD342B342F54216437882
:102EC00043DA53DA53B95BBA4BDB431D6DBD8DD486
:102ED00053D67C7EDFFDCECD4A662187216821480E
:102EE0001949214921E710281906196721906B2BF0
:102EF000426829AA31CA31071968215BC6337C2B85
:102F00003A26194621D48C517C86295AC65EE70E92
:102F10005B262147212721672926210E6BBBDE2E48
:102F200073A739D39C59CE1084DBD6718C8A5AA6EC
:102F30004104310339C228A128A2288120812061BF
:102F40001841104108410041004200CE52F794F46C
:102F50007352638F4A2D422C42C5104200A3108F3A
:102F600063293A410004198629A729C3102D5BB3B0
:102F700094728C128495949594558CD3733263F12A
:102F80005AB04A6F42ED318B212A190919E918E923
:102F900018E910E810E810C710C710C810C810A82A
:102FA00010A808A710A710A710A710E718F221F281
:102FB00021132A7332D442154B154B364B374358E5
:102FC0004358433843584BD9539B64FA74F974B748
:102FD00074104B9263FDD69CC6C929830862008396
:102FE000086308430843004308620842002621ACF6
:102FF0004AE5180619A92906194200D06B97AD6752
:1030000021A8298208317C8F6BE839F8BD9FF7B47D
:1030100094E518062106210621A8317AD673946614
:1030200031873992949AD6718CDBD655AD2C6B4989
:103030005AC751654924392339C228A22861186129
:10304000186110410861084100A410958CF373AA1F
:10305000312819A5108E4A8829630862082A4293EC
:103060008CA30862088629AB4AC3188A4AD39451B4
:1030700084D073738C748C13843484F47B93735274
:1030800063F152B04A2E3AAC294A1909190A190AB1
:10309000190919E918E810E810E810C810C810C894
:1030A00010A810A710A710A710C710E818F229132E
:1030B0002A5332943AD542154B164B16431743D632
:1030C00032F6323843D9537A6CDC9DDB9DD77C3B9A
:1030D000AE7CBE9684599DDFF79BC690636E636F8E
:1030E0006B4E632E6B4F734E6B0C63EC5A4A42B4BB
:1030F0008CF2730E53B06BB06BAB4A2B63DAD64FC6
:10310000636B4AE8398F6BAF73AF73B7B57ACE3A5A
:10311000C68831E5184629672957AD57AD46296657
:103120003186317294BBD6B394BBD6B7B514AD4DCE
:103130007B285A654944416441E330C228A220A259
:10314000208218821061088208C83157A5EA3943E5
:10315000084200AD4A748CC4104200C418728466E0
:103160002962082521CC52252166297394938CF07D
:103170007BAF73D17B90734F635063B373D373B3DF
:10318000735263B0524E42CC314A212A192A192A6D
:10319000192A190919E918E818E810E810C810C820
:1031A00010C810C810C810C810C710E81832327301
:1031B0003AB442B442D54A164BF642D63A994B1A23
:1031C0005C1A5CF9535A647C8DFED6BFE77FDFDD65
:1031D000CEBDCE7FE71FD73CBE9FE7DFF71DDF9B4D
:1031E000D6DCDEBCE6DCEEDCE61CEFFCE61DE7FD33
:1031F000DE7FEF3EE73EDF9FEF3CE75CE7DEF71D5B
:10320000E73DE71DE7FCDE5DE71CDF5DE73DE79F8F
:10321000F77ACE77B5B7BDD7BD5EEF36ADB07B4E92
:10322000730D6BB39CBBDEF49CBBD6B7B518C6CF91
:103230008BCF93A64924396549A6510339C328C3C6
:1032400028C320C220C218C318AF73318483106210
:1032500008452119BECC52210061080C5BCB5241BC
:103260000004198A4AE839E418328C9394117CD00E
:10327000738F738B52C83987312B423063926BB393
:1032800073B373F15A4F42ED316B214A214A212B1E
:10329000212B210A1909190919E918E910E910C99E
:1032A00010C810C810C810C810C8100819723AB455
:1032B00042F44AF54A154B374B374B1743B9535D28
:1032C00085FF9D3C851C7D3EAE9FEF9FE7FFF7FC91
:1032D000D6B163F78C7DC6767C2C3A5BBE5BC6ADFF
:1032E000520621263167396739094A094AA739093F
:1032F000422A421284F59CB8ADDCD6349D76ADDC12
:10330000E69394939435A539C618BEFCDE3AC67E82
:10331000EF5EEFFCDE9FF7BFFF7EF73EEF5EF77ECE
:10332000F75DEF7EF7BFF71CE79EEF1DE7FCE67247
:103330009C8E8BE75124414549286A0439E338E3E0
:1033400030E328E3200321853134A5294A6210A304
:10335000101074F7BD652941088631F39CA210E373
:1033600018CB52EC5AE4184E6BB49C328CF07B6E46
:103370006BCC5A87318310C41867296C4A0F63924B
:1033800073B373126390520E3A8C296B214B214B0D
:10339000214B212B192A1909190919E918E918E9EA
:1033A00010C910E810E810C810C8100819923AF4B3
:1033B0004A15531553365378537853584B9853FB4B
:1033C0007C1EA63EA63EA6DFC65FE75EDF7EE7BFA9
:1033D000EFFDD6178DBA9D9DC6D784CF4A1BB6592F
:1033E000A508212100210041084108C318621041AD
:1033F00008621005219494337C169D369D2E631926
:10340000CE494AE3184942AF73CB52159D2E63D87B
:10341000B59BD6ED6239CE739C09426B520D6B6E33
:103420007B729CF8C55DEF3DE79EF7DFFF9EF7D30B
:10343000A449624962C6598659E76124412441E39F
:1034400030A220232924294C6B929C2429A318A75D
:103450003917B64C636529A210D294694AC3188AF9
:103460004A2D632521AC52B49C528C1184AF73CC8D
:103470005AA731821041084108C41867294B4A10E5
:1034800063316B3263F15A6F42CD318C296C296CF8
:10349000214C212B212A212A190A190919E918E995
:1034A00018E918E910E910C910C8100919D34A140D
:1034B00053755B765B775B985B9853B853596CD9BF
:1034C0007C7B951CAE9EB6DFCEDED6FED65EDF5E82
:1034D000DFDFEF5EDFD9AD7CBE9FDFBDC6978456D0
:1034E0008437844E3A4819A50863086308C4184213
:1034F000088310A4102B3A78A5F273D9B598AD18AB
:10350000C68A5286316529307C8629D8B5F59CB4A7
:10351000945ACE19C656AD6631E420252945296551
:1035200031C741308C99D614A59AD67AD618CE6E6A
:103530007B495A085A65514451445123410339E3A8
:1035400030E3282431A639B29CCB5AC318C318B231
:103550009C107CC731C7318E6B149DC318C7318E48
:103560006B8629294256A57394528C8F73AC5AC826
:103570003982106208410862086208C418A8312B19
:1035800042AE527273316BB04A0E3AAC298C296C40
:10359000216C214B212B212A190A190A190919E931
:1035A00018E918E918E910E910E810091935533439
:1035B00053755B9663765B775398531964B97C5A5D
:1035C0009DBEC63CB63CAEDECE3FDF3EDF1DD71D06
:1035D000DF5EE7BFEF7FE77CC6FDCEDFEF3FDF19A1
:1035E00095377C1974D96B575B934A8D296C296B7D
:1035F00029A610E610E610505BF58CD58CDCD69A27
:10360000CE6D6B073A24191074862976A5159D2A6C
:1036100042B8B53EE7E93946290521042924292481
:1036200029C639308C38CE14A579CE79CE76BDCF67
:103630008BAA6A286265594451E2400341C230E2D4
:103640003003314431AA5AB39C4529C31828429506
:10365000B5E3188629928C79CEC73124214D634970
:1036600042A729359DD494528C8E730D63E841A3F3
:103670001062086208C31882106108C418C4184791
:1036800029B273D37B116BF05A8F4AED398C298C98
:10369000296C296C214C214B212A190A190A190A73
:1036A000190A19E910E910E910E9100919354B75E3
:1036B00053545B555BB763B85BD9639A7C787C19CC
:1036C0009D5FE73BBE9A9D1CAE1ED7BFEF9FEF3CB0
:1036D000DF1CDF3DE79FF79FEFDCD61EDFBFEF7FEC
:1036E000E79AAD59745A74D863F96B196C9763965D
:1036F0005BF34A503A4E322D32389D958C78AD1C92
:10370000DF928CA63186293074493A76A5D8B52E39
:10371000633AC6BCD68831262105210421A639E7A3
:1037200041C6410F8C38CE13A579CE79CEF3A4EFE4
:103730008B896248628559445103410239E230E283
:1037400030E3286539EF83EC620421042134A52895
:103750004282088E6B1CDFD073A310CC52AB4AA7F9
:10376000299384159D317CAF73EC5AC839A3188214
:10377000106208C318C3188210C3184108A3102E82
:103780006BCE5AEB418D52105BF0524E4ACD316CEC
:10379000296C296C216C214C214B212B212A190ADF
:1037A000190A1909190919E918E9182A19154B559F
:1037B00053545B555BB763396CBB7C59749142764B
:1037C0008C1FE77AA59B9DBB9D1BAEFDD6DFF7DF67
:1037D000F73DEFDCDE1DE79FF79FF71DDF3EDFDFE4
:1037E000F79FEFDBA5B87CFA841864396CF85BB8F6
:1037F000531964186496533353B7841BBE558C7B9E
:10380000C65AC687290832F0738E63D8AD77A519DA
:10381000BE77AD5AC6CD5247296629C318494A71A9
:1038200094C639CE83F7BD14A579CEDBDE91941012
:1038300094485A275A645144490341E238E230C25D
:1038400028E328C741518C6629E4180C5B5184C2D7
:1038500010283A3DE7B7B5C410C8310D5BC83152E6
:103860007C97A5527C8E6BEC5AE839C31882108283
:10387000100421C3188210C3184108E3180D638790
:1038800031A31046292B42AE52AF526E4AED398C0D
:10389000296C296D296C216C216B214B212B190A74
:1038A000190A190A190A19E918E9180A19154BD43D
:1038B00042345396635974DB7C5A6CF54A8D29D88F
:1038C000949ECE546379747B959A9DDAAD9BC69E87
:1038D000EFDFFF7EEFDDE61DE79FF79EEF3DE7FDA3
:1038E000DE9FEFBFEF3CB6B884B9847A741A64DA0D
:1038F00053FA533A5C5A64D75BD663DDB5BBB51750
:1039000095FED64F5B6721527C2D5B7AC6D8B5BC3D
:10391000D6AC52738CF59C0621E839E418CB5AD703
:10392000BDA6396D6BF7BD34A5BAD67DEF518C308D
:103930008C495AE75165492441E238C230E228C136
:103940002003294D732D6B05218629B394C63103BD
:103950002159C63DE7294225210D5B293AB38C5AEE
:10396000C6527C8F63CC52C839C3188210821004AF
:1039700021E4188210E31861088631EB5A25298268
:10398000106208E4188729EA394C424D4A0D3AACD6
:10399000318D318D298D298C216C214C212B210BCE
:1039A000190A190A190A190A190A192A21D542D419
:1039B000427663F76B7A7C5A74D642F229AE297B41
:1039C000AD3EC6313A5332F9635A95BAA5B9A53A14
:1039D000BE1EDFBFF7BFF71DE73DDF5DE77DE71CDC
:1039E000DFBBD65EE79FEFBECEFA94797C3A6C3AA5
:1039F000641A5C3A5C5A641964396C18743EBE19D6
:103A000095189579A5A9294F63327C3DE79BCE7720
:103A1000ADCC522E63D8B5C83187294A42AB52B6D5
:103A2000B508420C6375AD76ADFBDE9EEFF07BEF23
:103A300083495AC74985490339E228C228C228A1C7
:103A4000184431318C863166298E6B8D6BA210EE55
:103A500083DFF7718CC3188B52AB52F49C9BCE73EF
:103A6000846F63CC52093AC418A310821025212513
:103A700021C318E318A2100842AA5A4529C318A264
:103A800010C318A31004218729A931CB39EC39CDF3
:103A900031AD31AD298D298D296C214C212B192B6C
:103AA000190B190A190A190A190A192A21F54216B5
:103AB0004BD773FA949A84F742142AF329F2311CF3
:103AC000C6BCB5533AD3215532D75B1A8DBA9DB9CE
:103AD0009DF9ADBCCE9FE7DFF77EE75DDFBFEF3E30
:103AE000E7DDD67BCE1DE79FF7DFD63B9D9A7C3A7C
:103AF0006CFC7CDB747A64BB747A7479741B8D5EA5
:103B0000C677847684716B8D4ABCD65EE7F49CD010
:103B10007BD49C294256A58F634A42AF63CC4AF4BA
:103B200094AB528A4A55A539BE5DE77EEFCF7BCF75
:103B30007B4952854186410331C228C220C120A160
:103B400018074A2C6B66294A4A518C8631C5393B85
:103B5000E738C66529E7394D631184BBD656A5F110
:103B600073ED5AE939E418A310A31846290421E497
:103B700018A318E3186A526A520421C318E318A262
:103B800010410841086108C410062148296A298BA0
:103B900031AD31CE31AE298D296C214C212C192B20
:103BA000192B192A190A190A190A192A21F7423751
:103BB00053BA84BFC6FFCE5B8DB65B713AB34ABDC4
:103BC000D6FA9C95425632152A54325753FA849BA2
:103BD0009D799DB9A55BB65EDFDFEFDFEF5DE79F07
:103BE000EF5EEFFDDE5BCEBCD67FEF1FDF5A9D9907
:103BF00084BC9DDFBE3C85DB74FB7CFB7C9A749DA2
:103C0000A51EB6577C968CD2735EE7BCD60D63D0EA
:103C10007356A5AB4A5284B7ADD073948CA7290CC8
:103C20005B307C6A4A96ADBBD69EEF5DE7107C0F99
:103C300084495245316539E328A220C220C220813F
:103C400018695AE741494A8E734C63C318B5B55C8D
:103C5000EFEB5AA631EB5AEF73BAD696ADB8B5D999
:103C6000B5D16B47216308630887294529C31062D2
:103C700008E318694AA6318210A210A21041080078
:103C800000200020004000210862088410C5182789
:103C9000216A298C29CD31CD31AD296C214C214CA3
:103CA000192C192A212A210A190A194A21184B38D4
:103CB00053F8637B8D1ECFBFE71DD778A5978CFF88
:103CC000DEDA8C9542753A763A57323632F74A7ACE
:103CD000747B9D9A9DB99D1AAEFCCEBFEFDFF79E17
:103CE000EFBEF75EE7DCD69BCE9BCEBFEF7EE779DB
:103CF000A5188D7EBE9FBE3B8D1C8D1C8DFB84FC4C
:103D0000841FAE9C9D777CDAB59CCE36A58F6B2E3A
:103D10005BF594B48C6F635ACE77ADF17B6629283E
:103D20003AF7B50C5B35A51CE7BEF7FADE2F7C70C1
:103D30008C084A46314531C320C220A218A21882FD
:103D400018C749C741494AB19402190A5B5DE7F3B4
:103D50009404218A526D6B58C617BE9ACE9FE7FA1B
:103D6000AD136CAE4227198821A8210419610825DA
:103D700021694A65298210C318A2106108410841CF
:103D8000084008200020002108210842088310C4B0
:103D900018262168298A29AB29AC298D296D214C47
:103DA000192C192B212B210A210A192B2157537861
:103DB000539853985B3A749C9DBFCE7FE75FE7BFF3
:103DC000EFF994B452B652563AB732B73A753AB49C
:103DD0004238745B9D7AA5BAA5D9AD7BC67EE7DF74
:103DE000F7BFF7BFF73DE7DDD65BCE5BC67EEF7E64
:103DF000E7BAA55A959EBE9FBEDC9D9C9D5C951C16
:103E00008D7C9D5EBEBBA5BECE379D127CF1732E10
:103E10005BF494159DD4945AC697ADAC5205216DB0
:103E200063BAD6083A11843DE7DEF799CE708CF379
:103E30009C495287392529C320C220C220A11803DA
:103E4000296639284A51942B63A53178CEDBD6A751
:103E50003128424D63B6B599CEDBD6FFFF5ABEC9B5
:103E60002989210F539163E9290519A308E73949E5
:103E7000424529C318E318A31861084108410820E6
:103E80000841084108410821082100210041088318
:103E900008C5180619272169218B298C298C296CC2
:103EA000216C214C212C212B192B194C21B75B970C
:103EB00053795339531953595BF86B5A9D1FD7DF08
:103EC000EF3FDFDCB5D87BD552D63AD642B53A744F
:103ED0003A733AB7633B9D7AA59AADDAADFAB5FD70
:103EE000D69FEFDFF7DFF75EE7DDDE7BCE3AC63E3B
:103EF000E77FE71CAE5A951FCF3FCF1DAEBCA57C18
:103F0000953B95FDAD3FDFBECEB9AD74840D53B486
:103F10008C4E63B38C19BEB8B5B8B58C4A72847137
:103F20008C79CEAA52F07B1CE7DFFF78C6D294339F
:103F3000A5CB5A66310429E320C218C218A118245F
:103F400029084A2D73F3A4E73913A59DEFAF7BC76A
:103F5000392D63149DBAD6BAD6FFFFDBD66A42A4C8
:103F6000084719B163AD422519E410293A284245A2
:103F700021E318E3188210610861086108410841D3
:103F80000841084108210041084108410841084210
:103F90000862088308061948216921492129194A1C
:103FA000216B216C214C214B212B196C217753580B
:103FB000535953394B5A4B5953795B975B7B9D5FF0
:103FC000DF3FDFDFEF7FE7DBB5F7731553F54AB669
:103FD0003A953A953A5753BA8C7BADBBADDAADFA08
:103FE000AD9CBE5EDFDFF7FFFF7EEFDCD69CD63BED
:103FF000C6FDD67FDF9CC6DBA51FCF1FCF5DB6DC1D
:10400000ADBBA51DAE5FDFDECEDAAD579DE931B3A6
:104010008CAF73F49CF8B5B8ADD9B51ABEF17BA7D7
:1040200031B6B5107CCF733DE7DFF758C6339DF34B
:104030009CEC5A87310421C318C318A218A2188512
:1040400039495A15ADAB5A6D6B7DEFD7BDC739ED08
:1040500062718C9ACEBAD6DEFFDAD6AA4AC31009AC
:104060003294846C42051946216A42E8314529455B
:1040700021C318821062088210A318610841084108
:104080000841084108410861086108610841084188
:10409000006208A310A410A410A410C510071927CB
:1040A00019282129214A214A214A216B21374B58BD
:1040B0004B784B584358435843584B78533C8DDD0D
:1040C000A57A9DDECE9FE7FFF75FE7DBAD1874367C
:1040D00053D642B542B53A3653997C7B9DDBA51B3E
:1040E000A61AA63AB61EDFBFEFFFF77FEFBCD69C3D
:1040F000D65BC6FDD69FE7BDC63BB63FD75FDF5C4C
:10410000BE5DBEBEC6FFCEDFCE7DBED9AD327C93D6
:104110008C14A5F07B76AD98AD9CCE36A56B4A8706
:1041200031F49C76AD4D633CE7DFF758C674AD5073
:10413000846A4A6729E518C310C210A210C218A6E3
:1041400039CF83118C4A5259CEFBE60C63AB5A6FC0
:104150007318BEBAD6DFFFDAD64842C3106A425699
:104160009DCD52E5184621293A86298629C731E492
:10417000188210620862084108410841084108415C
:1041800008610882108210610841086108C318E3C1
:10419000188210210021002100420063088410C40D
:1041A00010C518E710E718081908194919374B37CF
:1041B000437743774356439743B84B984BFC7CFB7C
:1041C00084354BB65B3A957DBE5FE7FFF77FE71C12
:1041D000BEBA8C775BF542B43A1443786C7A8DDBC7
:1041E000A51BB63AB63AB6DCCE7FE7DFF7BFF7DD00
:1041F000DE9CCE7BC6BCCE9FE73ED7BCCE5FE73F02
:10420000DFFED6FFD69EBE7DB6FFCEBCC6D8B5516A
:1042100084318CF49C3AC69CCE57A577AD0D63874C
:1042200031AF7318C6AE73FBDEFFFF17BE33A5EBCD
:104230005AAB4AA9290619C410C310C310E31808C1
:1042400042B29C6A5210843DEF92948A520C63B73A
:10425000BDDBD6DFF7FCDEAA52C2106A4A55A58B39
:104260004AE418C831E831A7310842A731C31862BF
:10427000088208821062086108210020008210E391
:1042800018E31862084108E31845294521C31020A6
:1042900000000020002000210021004100420862AF
:1042A00008831064086408A60808198A21364BD5CB
:1042B0003A1643774B574B5743B853B8535D85BBBA
:1042C000741643164B364B7653F9845CB67FE7DFA2
:1042D000F79FEF7DCEDA8C965BB33AD43A586C5A9E
:1042E00095DBA51BAE1AAE3BB67CBE3EDFDFF7DF2B
:1042F000F71EDFDDD6BCCEDCD69EE75EE7DDD69FBF
:10430000EF7FE7FFD6BEC61CAEFFCE5FDF3DDF14FA
:10431000A5CF7B5DEF9FF75EE777A5F9BD2E63E93B
:10432000418A5259C6307C9ACEFFFFB5B5D29CEA7D
:1043300052117496843574CF4AE931293A8529EFB0
:104340007B4D6BAB52DBDE18BECB5ACB5A35ADDBA7
:10435000DEBEF71CDF8E6BA210EB5A75AD494A0426
:1043600019083AE839A731494A8631A2108208A3D0
:1043700010C310821041084108A31845292521A225
:104380001082104521E73986310421610841086116
:10439000088208610862086208620882108210833D
:1043A00010C31889296D424C3A4D3A0C3A1EAE3B67
:1043B0008D5974975B16533653975BB85B3C8D7A77
:1043C0006CF6421743384B374B564BD75BD9843C7E
:1043D000BE5FE7BFF75FEF7ECEDA94355BB342B6E0
:1043E0005B1A8DFB9D3BA63BAE3BB67BC6DCD69FE6
:1043F000EFDFF75FE7FDD6BCCEDCD65EE79FEF7E52
:10440000EF9FE79FE7BDC69DC6BDC69FE79FEF7ABA
:10441000CEBAD61CDF1DDFBFF77FEF3AC6538CAC98
:104420005AE84138C6F39459C6FFFF75ADD29C2CAB
:104430005B12749A9DBBA53574915BAC42283A30EF
:104440007C0D6335A5DBD6EF7BCA52D294DAD69EBB
:10445000F73CE73084C3180C6334A5494A65294A00
:104460004AE839E83908422421C318C3180419E47A
:1044700018A2108210E4200842C7392421C318A7CB
:10448000310842863104216108610882108210825D
:1044900010821082108210821082106210620862F4
:1044A000108210C9312B420619E510C4105FD71FC6
:1044B000D7BFC67EC6FCB51A9D377CD76B9A7CD811
:1044C00063B542D642F74AF742585379537853B905
:1044D000635A7CBDB51FE79FF79FF7BED6B89434EB
:1044E000533553F87CDA953BA65BB63BB65BBEBD55
:1044F000CE3EDFFFF7BFEF3EDFFDDEFDDE7EEF9F4E
:10450000EF3EDF9FE75FDFDDCE1ED75FE79FEFDF88
:10451000F77ACEAF73528456A5FFFF3DDFD9BD8C2D
:104520005A094AF7BD549D38BEFFFF34AD13A58E1E
:104530006BB1635A8D376C2E32AE424A3ACF6B71F3
:1045400084107CDBD676AD6D63307CB9CEBEF75C73
:10455000E7928C65298E7314A58A52C739AA52C76F
:10456000310842C739E420E318E420C318C318C354
:10457000180421494A8A522421C318A739E8410462
:1045800021A21061082000410841084108210820AB
:1045900008200820002008200020082008200020F3
:1045A00000200841084108000000006208BB9D5D32
:1045B000B6FFCE3FDF9FEF9FEF7FE7DFD63CB678B9
:1045C0007C1553F54A1653F7521853395339537A19
:1045D0005B9A63B96B58849BB5DEDE9FF79FF7BE8D
:1045E000D6D98CF563B674B99D3BAE5BBE7CBE5B21
:1045F000BEDCCE3ED7BFEFDFF79FEF7FEF5EE79EDB
:10460000E7BFEF5EDFBFEF9FE73EDF7FE79FEF9EF5
:10461000F79ACE5184AB52938C7EE7FFF7FDDE2FE5
:1046200073EC6234A5549D79C6FFFF34AD13A5EF3A
:1046300073B263BC955553AD298E3AAC42B38C71BD
:104640008438C67ACE3184CF7359C6FFFF5CE7D376
:1046500094A631EF7BF49C0842A63108424529C755
:10466000394521A210A210A2108210C3182521E8FA
:1046700039AB52E420A31886310842E3186108617F
:1046800008200020004108210821082100210020E5
:104690000820002000200020002000200820082002
:1046A00008200800002000200020006108923A1431
:1046B0004B17743A9D3CBE1ED79FE7FFEFFFEF9F5D
:1046C000DFBDC69BA5998C9873F85AD752185B1812
:1046D00053795BBA63B963B86318743B9DBECE7FF0
:1046E000EFBFF71ED7B9A519959AA5FAAD5BBE9B8A
:1046F000BE9CC6BDC65EDF9FE7DFEFDFF71EDF1D96
:10470000D7BFEFBFEFBFEFBFEFDFF77EEF5EE79EF4
:10471000EF5DE739C65184D7B59EEFFFF75EEFD95D
:10472000C5EC622F84539DBACEFFFF75B57194F02E
:1047300073D363BD95144B8C29CB296F5BB28CB2BC
:104740008CBAD6F49CF183F8BDDFF75DE734A50899
:104750003A107CB2942842494A294AC739E73904B9
:1047600021A210C318C318C318C739494AAA52A6B0
:104770003104218631E841E320610841086110419C
:1047800008610861084108410841084108410841A1
:10479000084108410840082008200820082000009F
:1047A0000020004100000000000000610853323288
:1047B0002A5232723AF24AF56BF88CDBADBDC67FF5
:1047C000DFFFEFDFF79FEFDED6BCB5998CD77377AD
:1047D000639863995B79537953995BB96359743BD7
:1047E0009D3DC63FDFBFEF3FDF5CC63BBEFAAD5A23
:1047F000B67BBEBCC6DCC63ED79FE79FE77FE7DC43
:10480000CEFCD6BFF7BFF7BFF7BFF7DFF73DE73DF9
:10481000E7BFF77EEFFBDEBEF7FFFFFFF7BFFFFD51
:10482000EEAF7B5084749DBACEDFF7D7BD0F8410F6
:1048300074556C7C85144BAC296D42B38C918C38CB
:10484000C639CE728C15A59FF77EEF55AD6A4A72B8
:104850008CB294CB520C638A52E841C7392421E3CD
:1048600018E318E3182842AA5A6A52E841652986D3
:1048700031C7390421610861106110611061104174
:1048800008611041084108410841084108410840B9
:1048900008200820082008200840082000200020C8
:1048A000002000200020002000400861081222F2B1
:1048B000211222322A1132F129D0291132145357F0
:1048C0007C799DBBCE9DEFFFF7FFFF9FEFBDD6FC30
:1048D000B5FB8CB96359537A539A53BA5BBA63F9EF
:1048E0006B1A6C3AA53BCE3EE7BFF75FE7DDD67C9F
:1048F000BE7BBE9BBEBCBE1DCFFDCE9CC61DDF7F5A
:10490000DF3DDF7EE7BEF7DFFFBEF75DEF7EEFBB8B
:10491000D65EE7FFFFFFFFDEF75CDFDEEFFFFF7F26
:10492000FF76BD708CD5ADBACEBFF718C6EF8351F8
:104930007CF8843C75B242ED31D26B938C54A5BAAD
:10494000D634ADF4A45EEF7EF756ADCC5A739432F4
:104950008C4D63AE73CB5A494AC8412429C318E32E
:104960001828422C63694AE841A739863186310408
:10497000216108821082106210611061106108616B
:1049800010610841084108410841084108410841B7
:104990000841084008200841084108400020002044
:1049A00000200020084008200020084108CF29AF3F
:1049B00021B021B121B121B121B1219019D121F131
:1049C00029723A1453D76BB98CFDBD1FDF7FE79F67
:1049D000E77FE7FED63DBE3A951874B863D96BFA07
:1049E000731B745B7C7A7CFB8CFDA5FFCE9FDF9FE5
:1049F000E73EDFBBCEBCCEBCCE7CBE3BA67CAEFCD5
:104A0000D6DFEF7EE7BFF7BFF73DE75DEF5DEF9ED7
:104A1000F7BFF7FFFFDFF7FBD6D39439CEFFFFFFD9
:104A2000FFFBD6307C38BEFBDEBEF739C6F073F232
:104A30006BF9845C85302A4F3A747C9284F7BD38D8
:104A4000C655AD1CDFDFF79AC68F6BB4949394CF35
:104A50007BAF736A4A6A4AC739042104210842AE0F
:104A600073AA52C7390842A7314529E318A2108218
:104A70001082108210821061108210611061086132
:104A800008410841084108410841084108410841DE
:104A9000084008400820084108410820082000205C
:104AA000002000200020002000200061084A214B47
:104AB000214C214D212D192D192E116F19B021D105
:104AC00021F2293332743AD64A3553B663787C9B47
:104AD000A59EC61FD75FE77FE71FD73DBE1B957A10
:104AE000847A849B849B7CDB7CFA845A8D1BA6DDB4
:104AF000C67FE7BFF79FEF7BC6FAA5DDBEFEBEBB54
:104B0000CE5EDFFFF7BFF79EEF1CE7DBDEDFFFDFE8
:104B1000FFBFFFDBDE5DE75DE776AD14AD5DE7FF70
:104B2000FF9DE7349538BE3DE7BEF759C6317C910D
:104B30005BF97C1B7DEF29D14233743595BAD65988
:104B4000CE3DE7FFF75DDFF8AD569DD494318C6E16
:104B500073AB52494A66314529E839AF73CB5AA73E
:104B6000312842C7392521C318A318A210A210A2C8
:104B700010A2108210821061106108610861086142
:104B800008610841084108410841084108410820DE
:104B900008200820082008200020082008200020E5
:104BA000002000200020002000200061088308630E
:104BB000088408A508A610C710C8100A114C196D62
:104BC000198F219021B121D22133229432F53AF567
:104BD000427653997C9B9D3DB6DFCE3FDF7FE73F1A
:104BE000DF9DC6DBAD3A9D3A957B9D9B9D7A957A7C
:104BF0009D1BB6FED69FEFBFEF5EDF7CBE5BB65E51
:104C0000E73EDF9FEFDFF7DFFF7EEF1CE73CE7BE0D
:104C1000F7DFFFFCDEBAD69EEFBBD676AD7ACEDFED
:104C2000F7DFF738BEB6B51CE79EF779CE52847031
:104C30005BB87C1B7D5132D56BD58418B6FBDE7E0C
:104C4000EFFFFF5DE718B6D7ADF494327C4E6B6A88
:104C500052E8398631E7390C638E73C7390842C789
:104C600039E418E318A310C318C318C318A210829C
:104C700010821061106108610861086108610861B3
:104C800008410841082008410841084108410841FD
:104C9000084108410820082008410841084108410E
:104CA000084108410841084108610882104100009C
:104CB00000010001000100220023006408A608C8CA
:104CC000102B114D196E1990199119B221F321541D
:104CD00032B642F64A1653976338743A951CAEDEE4
:104CE000C65FD77FE73FDFBECE7DBE1CAEDBA5DB58
:104CF000AD1CB69ECE1BBE5FE77EE79FE7DCCE5EB7
:104D0000E79FEF9FEF9FEFDFF79FF75DE739C6590A
:104D1000CE5DEFBEF73CE7DBD69FF79BD639C65D8D
:104D2000E7FFF7FBD6D7B5FBE67DF7BAD6D494B14B
:104D300063F984DA74134BB78436959EEFDFF7FF7F
:104D4000FF1CDF96AD769D3595317C0D5B4A4AE8B8
:104D5000412942EC6210846A4AA631C739E318A39C
:104D600018E318C318C318C318A210A21082108227
:104D70001082108210821061106110611061108227
:104D8000108210821082108210821082108210A273
:104D900010A210A210A218A210A218C318C318C300
:104DA00018C318E318E318E318E31824216100205E
:104DB000000000000000000100210022004200432A
:104DC0000064008608C8100A192E217021712991EB
:104DD00029D331353A76429642F64A364BB65B785D
:104DE0006C5A851CB6BECE5FDF9FE75FDFFED6BD87
:104DF000CE9ECE7ECE7AB57DCEBECE7BBE3ED7BF1A
:104E0000EFDFF79FEF9FF7BFF75EE79FF79EEF5942
:104E1000CE9AD65DEFBFF73DEF3DE73EEFFCDEBB40
:104E2000D6DFF77DEF7AD6BADE7DF7BAD655A5B1D3
:104E300063DCA51864F24A18953DDFFFF7BEF7FC66
:104E4000DEB8B5B7B576A593848F634E634E6BD04D
:104E50007BB2948E73C7398631E41824218631657C
:104E6000290421E318E318C318C318E318C318C3AF
:104E700018C318C318C318E318E318C318C318A23B
:104E800018A218A218A21882108210821082108212
:104E900010A210A210821082108210821082108242
:104EA0001082106108610861086108821021000009
:104EB00000000000000000000000000000000000F2
:104EC00000010002002200440888100B21D0395351
:104ED0004AF55A976B197C7A84DB8C3C959C9DBD76
:104EE000A59C9DDCAD5CBEBEC6DECEFED63FDF7FA0
:104EF000E75FE75FE77DCEFBBDFED67CBE178D5733
:104F0000A519BE7FEFBFF7BFF79FEF5EE77EEF9F6C
:104F1000F71CE7BBDEFCE6BFFF3DEF5EEF9FF7DB74
:104F2000D67DEFBEF71CE779D67DF79AD6B7AD757B
:104F3000741DA6B753F24A9DCEDFF7BEF75CE77A41
:104F4000CE19C6B7B576A51595369DF9BDB7B593FB
:104F500094694A45290421E7398A52284286312436
:104F600021C318C318A210C318C3188210A210C3FB
:104F700018C318C318C318A21082108210611061E0
:104F800008610841084108410841084108200820FB
:104F90000820002000200820002000200020000021
:104FA00000000020002000200020006108E939EA0C
:104FB000394B4AAD5A2F6BB07BF0837294F4A43511
:104FC000AD76AD97B597B5B9B57AB57AB539ADF8CF
:104FD0009C978C357CD473D473D573367C98849825
:104FE00084988C9884977CB77CD884F88C199579B0
:104FF000A51BBEBCCE3FE73EE75FE7DDD6B9AD8D72
:10500000520A42B173F9BD5EE7DFF7DFF79FEF3D6C
:10501000E73DEF7EF7DBDE1CEFBFFF7EEF9EF75D27
:10502000E71CE7FFFF9EFFFBE69DF79AD65ABEBD41
:10503000C6BC9D163BB56B7FEFDFF79DEFBAD6F888
:10504000C5D8BD39C6DBD6BBCEF8B5F59C6B4A25B5
:10505000294529C739E739652966290421E318A2BA
:1050600010A210A210A210A210A210A210C318A287
:105070001882108210821061106108610861084175
:1050800008410841084108410841084108410820F9
:1050900008200820002008200020002008200820E8
:1050A00000200020002000200020006108FCE6DC39
:1050B000E6BCDE9BD63ACEB8BD57AD15A59394CFCE
:1050C0007B0D636A4AC839A83146290521C418C333
:1050D00010A310A308A308A308A310A410C51807C1
:1050E00019AB318F421253735B94535353324B11AC
:1050F0004B314BEF4A4F5B537CB494BCD65EEF9878
:10510000B50F63AD52D59C169D3ABE9FEFDFF7BF3A
:10511000F71DE73DE77EF75EF75EEFBFF7DFFFBE07
:10512000F7BEF7DFFFFFFF5DF7BEF7DBD65EDF5FA1
:10513000D79C95B432B4635FE7BFF71BDF38C6F87E
:10514000BDBCD61DDFBBCE76A56E632A422A42AC1B
:105150005A0842A731A6318631252904210421E3CA
:1051600018C318E318E318C318C318A210A218A292
:105170001082108210821082108210611061106102
:1051800008610841084108410841084108410820D8
:1051900008200820082008200820082000200020DF
:1051A00000200020002000200020006108484AA6BE
:1051B000392529C318821062084208420862088211
:1051C000088210C318A318A310A210A210A210C224
:1051D00010A210A210C210C310C310A310A41084F8
:1051E000088408A7100A198C21ED298F3A314BB297
:1051F00053104BCA298821A82946218B52318CF69D
:10520000A41EE7F9BD77ADF9BD77A5B8ADBCD65EF4
:10521000EFFFFF7EEF3DE79FF7BFFF9EF7DFFFDE6B
:10522000FFDEFFFFFFFFFF9EF7DEF75DE79FE73F33
:10523000D79C8D3222367C9FEF9EEF1BDFDBDE1D7D
:10524000E7FCDE7ACE76AD728C528432842E63090E
:1052500042694A2942A739652925210421E318E337
:1052600018C318C318A210A210A210A21082108294
:10527000108210821082106110610861086108615B
:105280000861086108610841084108410841084176
:1052900008200841082008200820002000200020C5
:1052A000002000200020002000200061086108404C
:1052B00000610862088208A310A3108208620882B5
:1052C000106108410841084108611082108210A253
:1052D00010821082108310A310C4102619CA292D21
:1052E0003A2D32EF31313AD24A735B7574D9A5BC8D
:1052F000C6DCC67BBE98A5169D127CB073528CCDC1
:105300005AF59C33849073D59498ADB8AD7BC6BCE8
:10531000D63EE7BFF7DFFFBFF7BFF7DFF7FFFFFFBF
:10532000FFFFFFFFFFFFFFFFFFFFFFBEEFBFE7FE37
:10533000CE3A85322AB78C7FEF9EEF7DEF3DE73D79
:10534000E73ACE77AD56A5B3948F6BED5A8B522AC0
:105350004AC739863125290421E318C318C318A385
:1053600018A2108210821082108210821082108285
:105370001082108210A218C318C318A218A210A27B
:1053800010821082106110610841084108410841F3
:10539000084108410820082008200820082008208B
:1053A000002000200020002000200061086108206B
:1053B00000000000000000000000000000200020AD
:1053C00000410841084108410841084108210021E5
:1053D0000021084208620863088308E510A9294CE7
:1053E0003AEF4A5353F66BF9941CB6DED67FE7BF0B
:1053F000EFDFF7BFF7BFEF7EE75EE7BCD67CCEF905
:10540000BDB8B55AC633844B4A8C4A906BB48C985D
:10541000ADBBCE5EEFDFF7DFF7DFF7FFFFFFFFFF8C
:10542000FFDFFFDFFFDFFFDFFFDFF7DFF7BFE77C37
:10543000BEB884313279AD9FF79EEF5CE7BAD6D81B
:10544000BD36ADB49431846E6BEC5A4A4AC83966A5
:105450003145290421E418E318E418E418C318A31B
:1054600010A310A310C318C318C318E318E320E354
:1054700020E320E318E318E318E318C318C318A2C5
:105480001082106108410841084108410841082084
:1054900008200820082008200820002000200020E4
:1054A000002000200020002000200061086108206A
:1054B00000210041006108610841084100410040AD
:1054C00000410000000100830867212A3A4F6373FE
:1054D0008CD59C16A557AD77B557AD37A557A557B1
:1054E0009DD9ADDDCE1FDF3FDF3FE71FE7FDDEBB10
:1054F000D6DBDEBAD63CDF5EE77FE77FEF9FEF7F4C
:10550000EF3EE75FEF7FEF7BCEB8B5D594906BD1E0
:1055100073369D7BCE3EE7DFF7DFF7DFF7FFFFDF78
:10552000FFDFFFDFFFFFFFDFFFFFFFFFF7BFEFD969
:10553000ADD46B303A3BC6DFFF5DE7DAD659CE1605
:10554000A5949411844D6B8A4A084287316631874D
:1055500031462945292529252945294529452966F1
:1055600029452945294529242104210421E320E353
:1055700020E318C318A21082106108610861086155
:1055800008610841084108410841084108410820D4
:1055900008200820082008200820002000200020E3
:1055A0000020002000200020002000610862080187
:1055B00000010021006108821082108210A310E413
:1055C00018E410882134741BAE9CC69CC6DDD63E00
:1055D000E73EE73EEF5EF73EEFFDE6BCDE7BD65BE7
:1055E000CE9CD6BBD6BBD69BD69BD67BD65AD65A9C
:1055F000CE3ACE5ACE7BCE7BCE9CD6FDDEFDDE1DD6
:10560000DF3EE73EE73EE7BFF73EE7FDDEFDDEDCDF
:10561000D67BC69BCE9BC6DBCE7EE7BFF7DFF7DF30
:10562000FFFFFFDFFFDFFFDFFFFFFFFFFF9EF7B89A
:10563000B5358C1AA55FEF7EEF9AD675ADD394126F
:10564000847073ED62EC5AEB5AAB5A6A52494A497C
:105650004A494A0942294A294AC839A731A739661D
:10566000314529452925290421C318C318C318A287
:1056700018A21082108210A2108210821061106194
:1056800008610841084108410841084108410841B2
:1056900008410841084108410841084108410841C2
:1056A0000841086108610861106110A218420801F0
:1056B0000001002108210841084108410841004239
:1056C000006300EB291464104BEA29671926196757
:1056D000298731A839C841C841A8398839C9410A40
:1056E0004A2C4A0942E741E741E841094A2A4A4B24
:1056F0004A0B422B42EA390A422A424A4A8B526BEF
:10570000424A42AC52ED5A33849BCEB8B5F69CF96E
:10571000B53EE7DFF79FEFDCCEBBCE3DDF7EEFDFB0
:10572000F7FFFFDFFFDFFFDFFFFFFFFFFFDFFF5EB2
:10573000EF5CD6BBC5DDDE9BD679CED6B535A536BA
:10574000AD57AD77B5B7B596B555AD15A535AD35F2
:10575000AD35A535AD35AD15A5D49C528CAF7B0DBF
:10576000638A52E7396631452924210421E420E384
:1057700020E318C318C318C318A218A210821082FD
:1057800010821082108210A210A210A210A210A2E9
:1057900010A218A218C318C318C318C318C318C37B
:1057A00018E318C318E318E318E320242162104219
:1057B000088210A318C318E418E420E318E41804BE
:1057C0002104210421E420E420E418C318C318E4D0
:1057D00018E418E418C418C310C41804194629663C
:1057E0002905210421052125210521052105212641
:1057F00029262126296729C831E831083A083AE8DC
:10580000392942E9414A4A4B4AD073B7B573949B50
:10581000D6DFFF9FF77ACE579D97A53AC63DE79E04
:10582000EFDFFFDFFFFFFFDFFFDFFFFFFFBFFFB7A0
:10583000BD0C630C6BD8BDF8BDD494F1836E732D91
:105840006B2D6B2D6B2D6BEC626A52294A294A082D
:105850004A284A294A69528A5A0C63F083F49CB751
:10586000BD18C6D8BD56ADD49C10840D632A4267BE
:10587000290521E418E418C318C318A318A218A214
:10588000108210A210821082108210821082108268
:105890001082108210611061106108610861084176
:1058A00008410841084108410841086110410800C9
:1058B00000000000000000000000000000000000E8
:1058C0000020002100210021084100410041004149
:1058D0000841084108410041008208A310620841C4
:1058E000086208620862086210831083108310A3A4
:1058F00018C418E418E418C4180419252125210532
:1059000021052125292621C939AC5256A5BFF7DF2B
:10591000FF7EF75ACEB8AD7BBEDCCE7EEF9FEFDFC9
:10592000FFFFFFDFFFFFFFFFFFFFFFFFFF9EF719F6
:10593000C6F4A4AF7BF083528CCF7BB07BD07BD0FE
:105940007BAF7BCB5A4952294AE841A739A6398611
:10595000396631452924290421E420E420E418048F
:105960002166298A4A118476AD39C65ACE39C6567F
:10597000A5D0732942E418A310821062086108417F
:105980000841084108410820084108200820082053
:105990000020002000200020002000200020002007
:1059A0000020002000200020002000610862084143
:1059B000086108820882108210A210A21082108250
:1059C0001082108210A310A310A310C310C310A341
:1059D00010A310C310C318C318E4202521252104E7
:1059E0002104210421052105210521052105210589
:1059F00029052105210521E420E4184629C839ACF0
:105A000062D1839494D594F5947BC6BFF7FFFFFCD5
:105A1000D6527CB4847BBE7BBE5EDF7BCE5AC63D55
:105A2000E73CE79EF7FFFFFFFFBFF7DFFFFFFF9EAB
:105A3000F79AD6939C6E736A526A524A528A52AB54
:105A40005A0C6BAA5A084AA739663124290429E45A
:105A500020E320C318C318C318C318C318A318A37E
:105A600010A310C318C3180421A731CC5AF49C39D1
:105A7000C6BBD69ACE9294C731A310821062106131
:105A800008410841084108410841084108410841CE
:105A900008410820082008200820082008200820A5
:105AA0000820082000200020002000610882084112
:105AB00000610861086108610861086108610861A6
:105AC00008610862088208821082108210A210A366
:105AD00010C318C31804210421042145292521E4F9
