:100000000C94D6430C9404440C9404440C9404447F
:100010000C9404440C9404440C9404440C94044440
:100020000C9404440C9404440C9404440C94044430
:100030000C9404440C9404440C9404440C94044420
:100040000C9404440C9404440C9404440C94044410
:100050000C9404440C9404440C9404440C94044400
:100060000C9404440C9404440C9404440C940444F0
:100070000C9404440C9404440C9404440C940444E0
:100080000C9404440C9404440C94044405A84CCDF2
:10009000B2D44EB93836A9020C50B9918688083CC2
:1000A000A6AAAA2ABE000000803F6E616E00696E9B
:1000B0006600000000000000006418046418003CA2
:1000C0004040207C000C3040300C003C4030403C34
:1000D00000003E1C080000041E1F1E0400103C7C93
:1000E0003C100020403E01020022140814220000AF
:1000F0003828380000001038100000000010000000
:10010000000878080000000015150A00007F7F092C
:1001100009010010207F010100040400011F0000FC
:1001200019151200004060504844000609090600F5
:10013000000F020101000000011F01000044444AB9
:100140004A510014741C171400514A4A44440000D8
:100150000004040400007C5454440008082A1C08CD
:10016000007C007C447C0004027F02040010207F9D
:1001700020100000000000000000006F00000000E0
:100180000700070000147F147F14000007041E00FE
:10019000002313086462003649562050000000070F
:1001A000000000001C224100000041221C0000143D
:1001B000083E08140008083E0808000050300000FF
:1001C000000808080808000060600000002010080F
:1001D0000402003E5149453E0000427F400000427B
:1001E00061514946002141454B31001814127F10DE
:1001F000002745454539003C4A494930000171090D
:10020000050300364949493600064949291E0000C0
:100210003636000000005636000000081422410067
:100220000014141414140000412214080002015197
:100230000906003E415D494E007E0909097E007FA6
:1002400049494936003E41414122007F4141413EFA
:10025000007F49494941007F09090901003E4149A0
:10026000497A007F0808087F0000417F4100002094
:1002700040413F01007F08142241007F4040404040
:10028000007F020C027F007F0408107F003E414186
:10029000413E007F09090906003E4151215E007F71
:1002A000091929460046494949310001017F0101E8
:1002B000003F4040403F000F3040300F003F403093
:1002C000403F0063140814630007087008070061CA
:1002D00051494543003C4A49291E000204081020A8
:1002E0000000417F00000004020102040040404081
:1002F0004040000000030400002054545478007F64
:100300004844443800384444442000384444487F3A
:1003100000385454541800087E090102000C52524F
:10032000523E007F080404780000447D4000002015
:1003300040443D0000007F1028440000417F400001
:10034000007C04180478007C0804047800384444D5
:100350004438007C1414140800081414187C007C21
:100360000804040800485454542000043F4440202A
:10037000003C4040207C001C2040201C003C4030C1
:10038000403C004428102844000C5050503C00448D
:1003900064544C440000083641410000007F0000D6
:1003A000004141360800000402040804007F6B6B22
:1003B0006B7F00007C447C000000087C0000000093
:1003C0006454480000004454280000001C107800C9
:1003D00000005C5424000000785474000000641491
:1003E0000C0000007C547C0000005C543C00007851
:1003F0002426257800782526247800702A292A705A
:10040000007825242578002054565578002055562C
:100410005478002056555678002055545578007C65
:1004200054565544007C55565444007C5655564409
:10043000007C5554554400385456551800385556CC
:1004400054180038565556180038555455180000A1
:10045000447E45000000457E44000000467D460085
:100460000000457C45000000487A41000000497AC0
:10047000400000004A7942000000497841000038FD
:1004800044464538003845464438003846454638E5
:100490000038454445380030484A49300030494A20
:1004A000483000304A494A30003049484930003C21
:1004B0004042413C003C4142403C003C4241423CC5
:1004C000003C4140413C003C4042217C003C4142D8
:1004D000207C003842412278003C4140217C004E83
:1004E0005171110A005864642410007C0A11227DA5
:1004F000007812090A7100000004020100010204E0
:1005000000000000020002000030484540200000CA
:10051000007B000000384444384400403E494936DE
:1005200000080408700C00605048506000205255CC
:1005300059300038545454000000007F41000040FE
:1005400022141860007C20201C2000443C047C44C1
:1005500000403C12120C00416355494100384444AC
:100560003C040008043C44240008147F1408004E96
:100570007101714E004529112945000D5151513D20
:100580000000000502050040004000400000081C7B
:100590003E00001C1C1C000000007008070000004A
:1005A0000808080000001D151700000007050700D7
:1005B000000011150A0000000000000000043C418A
:1005C0002000007C16151608002116083442007F12
:1005D000091D01030038545414080000007C4040F9
:1005E000007F0E1C387F0041225D221C001C3E1C37
:1005F0000800007F7F7F7F7F00777B017B77007F14
:100600004375437F007F6F55437F0040404040402B
:100610000044425F424400405E455E400040485511
:100620005E400000040810200003070E1C38000183
:1006300003070F1F007C787060400008081C221C14
:1006400000001C221C0000020008002000043E3FA5
:100650003E0400103E7E3E1000552A552A550024C7
:100660002A7F2A1200041E1F1E0400000000000042
:10067000000000000000000000000000000000007A
:10068000000000000000000000000000000000006A
:10069000000000000000000000000000000000005A
:1006A000000000000000000000000000000000004A
:1006B00000008639653925390431E330E330E33011
:1006C000E338E338E338C338C340C340C340C340D2
:1006D000C340C340C340C340C338C340C340C3400A
:1006E000C340C340C340C340E340C340C348E340AA
:1006F000C33033B5BEFFC651E340C340E348C340F7
:10070000E340C340C340E340E340E340E340E34011
:10071000E348E348E348E348E340E340E340E338A9
:10072000C338C328E328E330E330C338453939D62A
:100730000E63716B8F4A4A2165086208620887213F
:10074000EF4A9042714A724A7242B24A91420F3A5B
:10075000CD296B196A192A190919E818C810C71088
:10076000E710E710E710E710E710E710E810E810CF
:10077000E818E718081908190819081908190819B4
:100780000819281928192819281948194821481919
:100790004819481928214821482148212821282181
:1007A0002821282128214821482168216821682101
:1007B0008929A639863945390431C330C228A2288F
:1007C000C230C230A230A230A238A238A238A23839
:1007D000A238A238A238A238A238A238A238A23849
:1007E000A238A238A238A238A238A238A240A23831
:1007F0008228CA6A9DF7AE8BA230C240C340A2389D
:10080000A238C240A238A240C238C240C240C3404F
:10081000C340C340C340C340C340C340C338C338D0
:10082000C338C230C228C228A228A230043118CE50
:10083000AC528D4A926B2E3A2A1143002100A92115
:10084000314BB142303ACF31CE29EF292F32303AF5
:10085000EF318C194B110A19E910C810A708A70825
:10086000A608A608A608A610A710A708A708A710FC
:10087000A710C710C710C710C710C710C710C710E0
:10088000E710E710E71007190819081908190819DF
:100890000819081908190819071908190719E71874
:1008A000E7180719081908192719271928212821D5
:1008B0004821A731A63186392431E328C328C2282C
:1008C000C228C230C230C230A238A238C238C230C8
:1008D000C238C238C238C238C238A238A238A238A8
:1008E000A238C238C238C238C240C240C240C24038
:1008F000A238033199DE79DE0339C340C240C340D8
:10090000C340C348C340C348E348E340E340E3482F
:100910000349E348034904490449044104410441AB
:10092000E348E338E338C330C330C330243138CE32
:100930008A524629D3733153902A8A21A508EB2184
:10094000114B134B9142EF31AD218C21EE29303AFE
:10095000303AEF296C192A190911C810C710A708D5
:10096000A708A608A608A710A710A710A710A710E9
:10097000A710C710C710C710C710C710C710C710DF
:10098000E710E810E81808190819081908192819B3
:1009900028192819281908190719081907190719F2
:1009A0000719071907190819071907192719271906
:1009B0004821A729A731A63145310431C330C230BF
:1009C000C230C230C238C238C238C238C238C2306F
:1009D000C238C238C238C240C240C240C240C2401F
:1009E000C240C240C240C238E348C248E340E3408C
:1009F000E348C23071A47CF72862E340E348E34057
:100A00000351E35003510351045124512451245103
:100A100024514551455145516551655165496551CF
:100A20006559454925410439E430E328443117CE5E
:100A3000AA62C3184C4A3574523BB042AB29903A73
:100A400033431343D242703AED29AC21AC29EE393D
:100A50005042303AAE214B190A11C810C810A708ED
:100A6000A708A710A710A710A710A710A710A710D6
:100A7000A710A710C710C710C710C710C710E710DE
:100A8000E810081908190819081908192819281947
:100A90000819281928190819071907190719071912
:100AA000E718E718E71807190719071907190719A9
:100AB000482186298629863145310331C330C23029
:100AC000C238C238C238C240C240C240C240C23836
:100AD000C240E240E340E348E348E348E348E348F8
:100AE000E348E348034903490359E35003490349F1
:100AF0000359034927627CF791AC2449445124519E
:100B00002459246944614461656165616561856159
:100B10008661A661A661C761C761E761E861E761B7
:100B2000076AE761A759664925390431653917CE47
:100B3000AA6AC320052951631564735BB14213434C
:100B4000544B3343F242B03A2E2ACC216B218B29ED
:100B50000E3A513AEF296C212A19E910C810C71032
:100B6000A708A710A710A710A710A710A710A710D5
:100B7000A710A710A710A710C710C710C710E7101D
:100B8000E8100819081928192819281928192819E6
:100B90000819081908190819071907190719071951
:100BA000E718E718E718E7180719071907190719C9
:100BB00028214529452925310431E330C338C24075
:100BC000C240C248E248E248E248E348E348E3481A
:100BD000E348E348034903490349035103510351DF
:100BE00003592359236123612361446123514461E3
:100BF00024694461644978DEB9E6C6596451656187
:100C0000857185798571A571A671C671C671E77107
:100C1000E771E779087A287A497A497A6A726A72BA
:100C20008A7A8A724A6AE959A7496641A64138D642
:100C3000AA72E430A42027295163F5739463134307
:100C4000544B544B1243D13A4E2AED292919081915
:100C5000AC31303A1032AD214B190A11E910C810ED
:100C6000A708A710A710C710A710A710A610A710B5
:100C7000A710A710A710A710A710C710C710E7103C
:100C8000E8180819081909192819281928192819FC
:100C90000819081908190719071907190719071951
:100CA000E718E71807190719071907190719071986
:100CB0002721652925292431E430C338C238C240B0
:100CC000C248E348E350E350E350E350E350035994
:100CD00003510351045124492449244924512451E6
:100CE000246124694471447143696471436164718E
:100CF0004471446964610E9C7CFF6B8B8559A571BE
:100D0000A681A581C681C681C681E679077A078258
:100D100028822882288249826A828A82AA82AB82B9
:100D2000AC7ACC72AB726A6A0862A751C75118D606
:100D30000C730431C430C5284731105B15747453EB
:100D40009553744B3343F1426F32ED29E810850817
:100D500049210E3A2F3AEE296C212A190A19C81096
:100D6000A708C710C710C710A710A710A610A71074
:100D7000A710A710A710A710A710C710C710E7103B
:100D8000E8180819081929192819281928192819DB
:100D90000819081908190719E71807190719071971
:100DA000E718E718E618E618E718E718071907190B
:100DB00027216631452924312439E340C340C3400B
:100DC000E348E348E3500351E35003510359035907
:100DD00003512451655165496549854986518559B5
:100DE000656164694471648164796471647164717A
:100DF00064718479857147725BFF93C58459A579C5
:100E0000C681A581C689C681E681E68107820782FF
:100E1000078208822882498A498249826A826A82D4
:100E20008C728B72AB728A72286AE761085A59D643
:100E30008F83463905310539E4304729547CD46322
:100E4000B45B94535353F142903ACD29E7104400D8
:100E50000719EC316F422F32AD214B192A19E810D6
:100E6000C810C810C810C710A710A710A710A71047
:100E7000A710A710A710A710A710C710E710E81019
:100E800008190819081929192919081928192819D8
:100E9000081908190819081907190719071907194E
:100EA000E718E718E718E718E718E718E718E7184A
:100EB000272186316529453145390439E338E34036
:100EC000E340E340034103490349234924510451CA
:100ED00024516551A651C749E749E749E851C7512F
:100EE000A659656164696479647164716479647137
:100EF0006471647164718561D5D5FAEEE6618571BE
:100F00008579A571A579A579A671C671C671C671D5
:100F1000C771C779E779E779E879E879087A0972DA
:100F2000EA692A6A496A496A286AE7694A6A7ADE86
:100F3000739487314631253965414529B8ADD36B66
:100F4000156CD4637353124B913A0E32E7102200A2
:100F5000C510AA294E42503AEE298C212A19E910CF
:100F6000C810C810C810C710A710C710A710A71026
:100F7000A710A710A710A710C710C710E710E810F8
:100F80000819081908190819291908190819081938
:100F9000081908190819081908190819071907194B
:100FA0000719E718E718E718E618E618E618E6182C
:100FB0000721A7318631663145310431C330E33032
:100FC00024392439243944414441444124412449A9
:100FD00045418641C741C739C839C839E841C74981
:100FE000C6518559646164694461436943712369E9
:100FF00044614469246944612B8B7CFF8C932459A0
:101000004461856965616561856185618561866128
:101010006661866186618669866986698661876997
:101020008861A859C759E761C661A7616A6A7AD61B
:10103000949487296731663965418539F8BDF37322
:101040001574156CD463945BD2422F32E710010003
:10105000830826212C3A90424F3AAD292A190911CA
:10106000E910C910C810C810C710C710A710C710C2
:10107000A710A710A710C710C710C710E810E810D6
:101080000819081908190819081908190819081958
:10109000081907190819081908190819081907194A
:1010A000E718E718E718E718E618E618E618C6186C
:1010B00007198629662945292429E328E3282431AC
:1010C0004431653965398539863965394539243979
:1010D00045398639A739C839C831C831E839C841D6
:1010E000A749654944512451235123592361036180
:1010F0002351245904610451C661B9E694C52441C1
:10110000244924492449254945494541454145410A
:10111000454925492551455145514551455126518E
:101120002751464966496549655166494A5A7BD601
:10113000738C8729663166314529C639D8B5147450
:101140003674356C156CB45B124B4F3AE6100100E7
:101150002100C410EB39B142B1420E324B210A19C1
:101160000911E910C910C810C810C710C710A7107E
:10117000A710A710A710A710C710C710E810E810F5
:10118000E818E81808190819081908190819081999
:10119000071907190719081908190819081908194A
:1011A000E718E718E718E718E618E618E618C6186B
:1011B0000719452925210421E420C320E32004291F
:1011C000252945316531663166316631252924315D
:1011D000252966318731A831A831C931C939A839E3
:1011E000874145412441244103490351035103519F
:1011F000034904490451E4502449F3ACFBE6C649D1
:10120000E338043904310431043104290429043158
:101210000431043904390541254125492549254929
:10122000264925414541454145414539AB5ADCDE1A
:10123000F49C8731252925290421E739B8B5F473B1
:10124000777476747674146453534E3AE61801003A
:101250000000831089316F42B14A4F3A8C212A191C
:101260000A19E910C910C810C810C810C710A7087B
:10127000A710A710A710A710C710C710C710E81015
:10128000E710E810E810E810E810E810071908194E
:101290000819081908190819081908190819E71868
:1012A000E718E718E718C718E618E618C618C618AA
:1012B000071925290529E420C420C320C320E428D8
:1012C00004292529453166316739673125290429E3
:1012D0000529252946296729683168316839673920
:1012E0004639243924392441034103490351034930
:1012F0000441E440E448E448E338AA6A3CEF6D73F3
:10130000C3280439052105210521052905290529B9
:101310000529E428E430E43005390541254125411B
:101320002541253925392539253125290D633DE705
:1013300076AD66310429E420C310EC5A5484B04AD7
:101340005353D4633464D35B124B0D32E610010067
:10135000200882100621CD316F424F42AD296B210A
:101360002A19E910C910C810C810C808A708A7088A
:10137000A708A710A710A710C710C710C710C7103D
:10138000C710C710E710E710E710E710E7100719BC
:101390000719081908190819E818E818E818E718CB
:1013A000E718C718C718C718C618C618C618C61829
:1013B000071926290521E520C420C418A418C4183B
:1013C000C418E5180521262126210621052104211E
:1013D000E420052926294731672947296731463105
:1013E00025310431043165410439E3380441E338DF
:1013F000E438E438E438E438C33066397AD655AD99
:1014000004290429262946294629672967294629C6
:1014100046290529E428E428043105310531053140
:1014200004290429052904290429E4206E637EEF98
:1014300097B52529E420C31883104E6B8831E7182F
:1014400028198A21CA29A9212819C5106208000073
:1014500020088310C5186B21ED312F3ACD296C215E
:101460002B190A11E910C810C810A808A708A7105E
:10147000A710A710A710C710C710C710C710C71014
:10148000C710C710C710C710E710E710E710E71024
:10149000E710E718E818E718E718E718E718E7185B
:1014A000E718C718C718C718C618C618C618C61828
:1014B00007192719271969218A29AB29CB29CC2992
:1014C000EC292D324E3A4E3A0C3269210719C418D4
:1014D000C418E428253166316629862966296629DB
:1014E00046310429E42866394639E430E430E430F2
:1014F000E430E430E4300431C328C320729C3DEF73
:101500004A4A2521262947296831883188316729A7
:10151000672925290421E420042105210521E51856
:10152000C410C418E418E318E318C3106E63BFF7BF
:1015300097ADE418C418A31083108C52C418420845
:101540006310821062084208410820082000200031
:101550000000A5106A31AC29CC294F3A2E32AD21BA
:101560004B190A11E910C910C810A810A710A7102C
:10157000A710A710C710C710C710C710C710A71013
:10158000A710C710C710C710C710C710E710E71083
:10159000E710E710E718E718E718E718E718E71863
:1015A000E710C710C610C610C618C618C618C61849
:1015B00007196E32AF3A314B524B524B734B945327
:1015C000F5631664366C366CB45B334B8F3A8829FE
:1015D000E518C41805292629662967296729462997
:1015E00025290529C428E42886410431C328E42894
:1015F000E430C328E328E428E428C32029527EF7F6
:10160000B7BD66292629673188312729672987319F
:1016100026210521E420E4200421E420E420C4184C
:10162000A410A310A310C318C318A2102D639EEF1B
:10163000F49CC418A310831083104A4A2521630820
:10164000420862088310620821004108200000005F
:1016500041004829CD39EE314F3A9142703AEE2996
:101660006B192A19E910C910C810A710A710A710E4
:10167000A710A710A710C710C710C710C710C71012
:10168000C710C710C710C710C710C610C710E71083
:10169000E710E710E710E710E710C710C710C710F2
:1016A000C610C610C610C610C618C618C610C6107A
:1016B0000719B44BB54BB44B73437443B54B165C2D
:1016C000586458641764B6539553964B95533153E9
:1016D000EC310719C518062146214621462926293D
:1016E0000521E420C420A42004310431C320C328F0
:1016F000E3280431C328C328C328E4282529D8C5F2
:101700009FF7AB5247292629672947296729672967
:1017100046290521E420E420E420E420E420C41844
:10172000C410A310C318C318E318C3102D639EEF91
:10173000938CE418C418A318E4206A4A252162088F
:101740002100A3108B4A052142082100210000003E
:10175000420029292A29AD295042B24AB24A2F32E1
:101760006C212B190911E910C810C710A710A61079
:10177000A610A710A710A710C710C710C710C71032
:10178000A710A710A710C610C610C610C610C61006
:10179000C610C610C610C710C610C610C610C61098
:1017A000C610C610C610C610C610C610C610C61089
:1017B000E618543B543B543B5443B64B5864796C45
:1017C000586C1864B75B364BF542D5421543744BE1
:1017D00074536F3A491907112719272147294621C0
:1017E0000521E420C420C428A3202531E428C320F7
:1017F000C32045390431C320E320C320C31810841B
:10180000BFFF35A56731472968296729472947213F
:10181000A8310521E420C318E420E420E420E420DA
:10182000C418C418C418C418E418C3184D639EF72C
:10183000728C0421E420C4182529AB52E4188210CC
:1018400062088629F07319C6ED5A410800000100AC
:101850004200C718C9182B210F3AB24AF352513A25
:101860008D214B190A11E910C810C710A610A61037
:10187000A710A710A710A710C710C710C710C71030
:10188000C710A710A710A610A610A610C610C61045
:10189000C610C610C610C610C610C610C610C61098
:1018A000C610C610C610C610C610C610C610C61088
:1018B000E618544334433443955317647974797468
:1018C000F86B7653F54AF54AF54AD54AD542F43ACB
:1018D0005543544B50324A190719272127214621D5
:1018E0000521E520C420A428C420E4206639A218DC
:1018F000A32025312531C320E320C320C320C841C4
:101900003DE71CE72A42A831A931682968296829DE
:10191000C9392521E420C318C420E420E420E420B0
:10192000E520E520E420E418E418C3184D6BBFF768
:10193000728C25290421C31866316A4A0419820869
:101940008310AB4AFCDEBFF70D6342082100210083
:101950004308A7106710C9108D295142B34A71423C
:10196000CE296C210A19E910C810C708A608A610CC
:10197000A710A710A710A710C710C710C710C7102F
:10198000C710A710A710A610A610A610C610A6086C
:10199000A608A608A610A610A610A610C610C61067
:1019A000C610C610C610C610C610C610C610C61087
:1019B000E6181343344B955B176C997C787CF7736E
:1019C0005663155BF552F552B54AB542B542B5328C
:1019D000B432153B34432F324921071927212621E0
:1019E00025212521C420A320C320A3184531252962
:1019F000A318C3202429C320C320C320E420E4204B
:101A0000B7BDDFF7F27BA931A931A9298929A9310D
:101A1000C9312521E420C318C420E4200421052174
:101A20000521E520E520E4200419C3184E6B9EF73C
:101A3000518C0421E320C318C741494A0421831073
:101A4000051976ADFFFFF49CA310210021000100D1
:101A500022008610670887080A19AE31313A7242AF
:101A6000303A8D212B190911C810C710C710A710C3
:101A7000A710A710A710A710A710C710C710C7104E
:101A8000C710C710A710A610A610A610A608A60873
:101A9000A610A608A608A610A610A510A610A610A7
:101AA000A610A610A610C610C610C610C510C510E8
:101AB000E618134B955B3774587C3874B663355B06
:101AC0001553F452D44A9442743A953A953A753281
:101AD0009532D5323643144BCD3107192721462193
:101AE00046212521E418E428C318C318E420C7417F
:101AF000C318C320E4200429C320C318E420E41839
:101B00004D6BBFF73AC6C939A931892968216829BF
:101B100067290521C418C318C318E420E420E42071
:101B2000E420E520E420E5182521C4182D639EF764
:101B3000308C0421C320C320294AE941C418A318CA
:101B40004E6BBFF7D8BDE4184108410820000100E2
:101B5000430865084608460887082B21EF31714283
:101B60007142EF316C212A19E910C810C810C81051
:101B7000C710A710A708A710A710A710C710C71055
:101B8000C710C710C710A610A610A610A608A60852
:101B9000A608A508A508850885088508A510A5102C
:101BA000A610A610A610A610C510A510C510A51049
:101BB000E618955BD76B1874D76B755B1453F44AB2
:101BC000D44AB442943A7432743275327532553212
:101BD00075329532D53A354B91422819E6182619B7
:101BE00025190419E41805290529C318C3186631F5
:101BF0008631A318C3208739E420C320E420E418E9
:101C00008631FCDE3EE70E5B882968296821472182
:101C1000A9310519C418C418C418E4200421E4200B
:101C2000E420E420E51805210A3A05190C5B7EF74B
:101C3000F0830421C318C318AC62E94105214B4A63
:101C40003DEFDBDE45294108410821082000210045
:101C500042086508460866086608C8108D29514282
:101C6000B2427142AE294C210A19EA18E910C81093
:101C7000C810C710A708A710A710A710C710C71033
:101C8000C710C710C710A710A610A608A608A60858
:101C9000A608A50885088508850885088508A51073
:101CA000A610A610A610A610A510A510A510A51088
:101CB000E618D76BB76396631553D44AB44294427F
:101CC000543A543254325432553255325532553AD0
:101CD000553275329532F542144BAC29C6100519B0
:101CE0000419E418E418C3186631E420C318042169
:101CF000E841E420A3186631A739C318E420E418AA
:101D0000E42034A5DFFF16A5882988296829472102
:101D1000EA390621E418C418E420E4200421E42070
:101D20000521E420E51867292F6346210D5B7EEF2E
:101D3000EF8324290421E420A7398739A8395BD609
:101D40005EF7D083A3184108210821082000000075
:101D50004208650866086608460887082B212F3A5E
:101D6000B24AD24A303AAD294C212B190A19C9106E
:101D7000C810C810C710C710C710C710C710C710A9
:101D8000C710C710C710C710A710A710A608A6082D
:101D9000A5088508850885088508850885088508BB
:101DA0008510851085108510A510A510A510A5100B
:101DB000C6185563155BF552B44A7442543A343A26
:101DC0001432343214323532353255325532553AB6
:101DD000553275327532D53A5553B1422819061924
:101DE00005190419E418A31804214529C318A318D8
:101DF000C841A739A318C3188B5A0421C318E4207B
:101E00000421AA52DFFF5ACE2B42A9318829882902
:101E10002B4226210521E418E420E4200421E420BB
:101E2000E418E418E5188829906387210D5B7DEF9D
:101E3000CF7B2529042125292621A839B8BD9FFF5C
:101E400036ADA739621041082108200820000000A3
:101E5000420865106608660866086708E918CE310A
:101E6000924AF352D34A303A8D294C212B19E91862
:101E7000C910C810C810C810C710C710C710C710A5
:101E8000C710C710C710C710A710A710A608A6082C
:101E9000A5088508850885088508850885088508BA
:101EA0008510851085108510A510A510A510A5100A
:101EB000C6183563F452944A5342333AF331D32966
:101EC000F431F429F429F4311432343255325432D5
:101ED000553276327532B53A364B544BAB21061932
:101EE00025210521E420C418C3180429E420A318DF
:101EF000E420294A2529A318E8418A52C318E3207F
:101F0000E31886319AD67EEFB0738829A929C931A2
:101F10008C4A26210521E418E418E4200421E42059
:101F2000052105210519E931D58C0A32CC4A7EEF0D
:101F3000EF7B2429252966296729D49C9FF7D9BDE1
:101F40004A4AA21041082108210820082000200048
:101F5000420065086710670867086708A8104C21E9
:101F6000303AF352345BD34A303AAD294B210A1947
:101F7000E910E810C810C810C710C710C710C71064
:101F8000C710C710C710C710A710A710A610A60823
:101F9000A5088508850885088508850885088508B9
:101FA0008510851085108510A510A510A510A51009
:101FB000C6185563F4529342323AF231D229D329EA
:101FC000D321B321D329D329F431143234325432FA
:101FD000753275329632B632153BB6532E2A061933
:101FE00006210521E420C418C318E4208739C32042
:101FF000A318C841C841C31825290C634529C31833
:10200000042124215184FFFF56A58831882988297D
:102010008C4A2621E518C418C418E4200421E420C1
:10202000252105190519EE4A9CC60E4BAB427EE7E9
:10203000AE73452925216629D1739FEFB8B5B073DA
:10204000A310610841084108410820082000200031
:102050002200650868106808681088088808C91890
:10206000AE31B24A345B545BF34A2F3AAD296B214F
:102070002A190919E910C810C810C710C710C710CD
:10208000C710C710C710C710A710A710A610A60822
:10209000A6088508850885088508850885088508B7
:1020A0008508851085108510851085108510851090
:1020B000C6183353F242B3427232F229D121B2210F
:1020C0009219B221B221D329132A33325332542A1E
:1020D000753255327632B632F532D75390322719EF
:1020E0000621E520E420C418C318C3202531873910
:1020F000A318C4208B5A0529A3182952AB5AA31838
:10210000E420E420494ABFF79BCE4B426729882947
:102110006C4A2621E518C418C318C418E420E4202A
:10212000E418E418E51054747FDFF26B6B425DE74E
:102130006D6B04210421AC525EE759C6EC5A8B4A00
:102140008208610840004008410821082000210061
:1021500023006608681068106810881088088810C6
:102160002B210F3AF35295639563D24A2F3AAC294B
:102170004B210A190919E910E810C810C710C71037
:10218000C710C710C710C710C710A710A610A610F9
:10219000A6108508850885088508850885088508AE
:1021A00085088508851085108408840884088508BA
:1021B000C510F34AB342933A733A3232D12991218E
:1021C00092219221B321D329D429142A34323532D1
:1021D000553256327632B63AF63AB7531243281988
:1021E000061905210421E420C418A318C418C8390D
:1021F000252983106631294AA31846290D634529EC
:10220000C318E4188529F8BDBFF791736829892997
:102210008D422621E420C420C318C418C418E41831
:10222000C418C410C410F58CDFEFB3846A427DE794
:102230006E63E418E9395ACEDDDE6B4ACC52A73121
:102240006210420841084100410821002108200095
:10225000210065088710881089108910891089105D
:10226000CA106D297142545BD563945BF24A0F32F8
:102270008C294B210A19E918E810C810C810C7109A
:10228000C710E810C710C710C710C710A610A610B7
:10229000A610A61086088508850885088508850883
:1022A00085088508850885088508850885088508C6
:1022B000C510D342933A733A523A3232F2299121FD
:1022C000722192219321B321D429F429142A352A89
:1022D000563256329732D73A3743D75B7453481940
:1022E000E51025210419E420C318C418A3184629B1
:1022F000094AC420A3188B5A04218210AB5A8A526F
:10230000A318E4182419AE73FFFFF7AC8931AA298A
:10231000AD4A26210421E420C320E418C418C418BF
:10232000C410C410E41073849FE7B384AA421CDF76
:102330004E63462936A57FF7F28366296A4A04214F
:10234000A318E4204108400041002000210820009B
:10235000210064088708880889108A108A108A106A
:10236000AA100C19CF31D24A9463B563535B9142E2
:10237000EE31AC294B210A19E818E810C810C71033
:10238000C710E810C710C710C710C710A710A610B5
:10239000A6108610A6108608850885088508850879
:1023A00085088508850885088508850885088508C5
:1023B000C5109342723A523A52323332F231B22954
:1023C0009221722193219321B321F429142A342AD2
:1023D00055327632B632F73A574BF863B45B281968
:1023E00027190519E520C418C318A318C318A31882
:1023F000A639A639A21824296A52A21845290C6BBD
:102400002429C3180311283A1DE7DCDE2C42882159
:10241000AD4A2519E418C418C318E418C410C41030
:10242000C410C410C41090635EDF93846A425DE7F9
:102430006E63D0737EF7B4942A4A4629831041080C
:102440006631873961082000410020002008200003
:102450002100640887088A088A088B108B108B106B
:10246000AB10AB102D21103A135395639563135B9A
:10247000914AEE318C294B210919E810C810C81077
:10248000C810E810E810C710C710C710A710A61092
:10249000A6108610A6108608850885088508850878
:1024A00085088508850885088508850885088508C4
:1024B000C510723A32323232323233321332D329C9
:1024C0009221722172219321B321D429142A342A12
:1024D000552A9632D73A1743774BF75BD55B691984
:1024E0002719A829E518C418A318C318A31882101F
:1024F0000421294A0421A318084246296210AB5A34
:10250000E841A310E410251936A5DFFF706B882978
:10251000AD4226190519C418A310A410C410C41084
:10252000C410A408A4082F5B3EDFF494AB4A1CDF60
:10253000D3943DE7B7B5C839C93905192100A318A7
:102540008639C31820002000200020002008200821
:102550002100440887108A088B10AC10AC10AC1016
:10256000AC108A08CB106E295142145B956B956BA9
:10257000135B7042EE316C210A19E918E810C8109B
:10258000C810E810E810C710C710C710A710A61091
:10259000A610A610A608860886088508850885085E
:1025A00085088508850885088508850885088508C3
:1025B000C51031321132113212321232F331D329B5
:1025C0009221722172199321B321D429142A542AF9
:1025D000752AB632F73A5743B74B386494534919C2
:1025E000C5088929A929A410A3108310821083107B
:1025F00083106729A831A310E5184B4283082621D0
:102600000E5B05190611061150639FEF98AD2A3A2B
:10261000EE4A882168192719E618E618E61006110F
:10262000071127194719B1631DD777A5B06B1DDFB7
:102630005DE79ACE4A4A6629E9416729252165293D
:1026400025292108200040002000200820084008FB
:102650002100430887106B088C10CC10AC10CC10F4
:10266000CC10AB10AB10EC188F31724A3463B573D9
:10267000B56BF3527042CE314B210A190919E91892
:10268000E818E810C810C810C710A710A710A610A7
:10269000A610A610A610861086088508850885084D
:1026A00085088508850885088508850885088508C2
:1026B000A610F131D129F129F1291232F329D329B8
:1026C0009321722172199321B321D429142A542AF7
:1026D0009532D63A3743984BD853796C3343081127
:1026E000E71007112C3A4821A410C510C510E510B9
:1026F000E5102719CF4AAA2969216D3A8E42281977
:10270000B363EF4ACC210D2AAF42BCCE3EDFEF527D
:1027100091636E320D2A0E2AED31ED310D324E32BB
:102720006E32AF3AAF3A957C1ED73ABEB48C3EE7D4
:102730005EE7F17BC418E4186B4A252104190421D3
:1027400041082108410040004000210820084108BC
:1027500021004300A7108B10AC10CC10CC10EC1053
:10276000EC10CC10AB10CC102D21CF31B252946BA9
:10277000D5737463D24A503A8C292A190A19091957
:102780000919E918E810C810C810C710A710A71039
:10279000A610A610A610A610A6088508850885080C
:1027A00085088508850885088508851085108510A9
:1027B000C610D029D129F129F129F229D229D3290A
:1027C000B221722172199321B321D429352A75328D
:1027D000B63A17439853F95B5964B96CD23A6A19FF
:1027E0006A198A19AB212D326A2169196A19AB213C
:1027F000CC29ED294F32B45B4F32F13A1564F142E6
:10280000F13A7874923AB13AB03ADAAD9FF77584FA
:10281000146C3243502A512A713A713AB13A124338
:10282000123B32431143B67C1ED75BBEB9AD9FEF5E
:1028300077A5A731A31046296E6B252121004108F9
:1028400021082108410840004000210820084008D4
:1028500021002300A710AC10CD10EC100D190D199C
:10286000ED10ED10CD10CC100D198E295042535B98
:10287000F56BB56B335BB14AEE318C214B212A19D4
:102880002A19E918E818E810C810C810C710A710CE
:10289000A610A610A610A608A60885088508850813
:1028A00085088508850885088510851085108510A0
:1028B000C610B0299021B121D129F229F229D329BA
:1028C000B221721972199321D429F4295532B63ADA
:1028D000F742B8531964BA74FB7C5864702AAD1976
:1028E000AC19ED21CC212E2AB03ACC21ED210E22BB
:1028F0000E2A502A2F2A754B34439132175C175CED
:10290000712AF753354B7132123B76745EE75CC621
:10291000156CF13A712A922A512A933AB23AD33A73
:10292000133B123B12437674BDC61ED71ED7BFEFB2
:10293000748467298B4AC8312521A31041084108B6
:1029400041082108200040002000410820082008FC
:1029500021002300A810CD18EE180E192E192E19DB
:102960000D110E11EE10ED10ED104E21EF31D24A87
:102970009463D56BB46312537042CD296B214B2104
:102980002A1909190919E810C810C810C710C7106A
:10299000C710A610A610A610A608A608A608A60886
:1029A000A60886088608860885108510851085107B
:1029B000C610B02190219021B121D121D229D32953
:1029C000D32192217221B321F4293532553AD642CE
:1029D0005853B85BBB7C3C8D3B85B653302AEE2107
:1029E000EE210F22EE21EE21D23AF2422F2AEE21E1
:1029F0000F22712AB232D332175CB22AD6539964AD
:102A0000F33AD332185C512AF132B2537CBE5FDF05
:102A1000B7848F2A2F22B22A9232B332B332D33202
:102A20001433133B1243356C7CC69FEF1DD73EDF3A
:102A300074844B42CC5246212521C3188208410898
:102A4000410841084108610861084108200841081F
:102A500021002300C918F0180F210F192F192F1961
:102A60000E190F19EE10EE104F190D19F031924298
:102A700094631574D56B946312534F3AAC296C2947
:102A80004A212A190919E818E818E818E810C710A7
:102A9000C710A710A610A610A610A610A610A61064
:102AA000A608861086088608851085108510851072
:102AB000C610B02170199019B121D121D221F3296A
:102AC000D22192219221D3291432553A964217539A
:102AD000995B196CFB847C95FA7CF33A2F2A502A77
:102AE0002F222F220F22EE21EE219553D23AEE21F2
:102AF0002F2A502A9132B2323443B54BF23AF9744C
:102B00005343B132B6537443AF2A345C36859FE7E2
:102B10007CBE2D2AED19B12AD232D232D232133BE9
:102B2000F332333B1243B463DDCE5EDF589D1ED7D4
:102B3000537CCD520D5B083AA7310419821041082D
:102B40004108410841086108410841084108200046
:102B5000210003000B213221322131213021301993
:102B60000F1930192F190E196F21F1297342B34231
:102B7000545B1474F473D46B525BF1524F3ACD3101
:102B80008C294A212A19091909190819E818C710A6
:102B9000C710C710C710A710A710A710A710A6101E
:102BA000A610A608A608860886108610861086102D
:102BB000C610B02170199019B119B121F221132A50
:102BC000D221B221D329132A5432B53AF74A5853A5
:102BD000D963DB7C5C8D9C95D65B4F2A2F2A2F2AEC
:102BE0000F2A0F220F220F22EE292E32576C913A14
:102BF0002F2A7032B132D13AF23AB553534B39855C
:102C0000F87CD03AF23AF55B8E2A7885746CFDCE6A
:102C10003ED7F0422D2AD132F12AD12AD232F33ACC
:102C2000143BF23A5353F78CBFEF9BC6B58C1EDFB3
:102C3000337CAC4A8B4AC73965290421A21041086C
:102C40004108410841084000410041082108210095
:102C5000210023008E3194297329522151213021E2
:102C60002F194F218F21B029523AD34A9242713AFB
:102C70003253B26BF3731474B36B7363F1524F42FC
:102C8000ED318B296B214A214A2129190919E810B4
:102C9000C710C710C710A710A710A710A710A7101C
:102CA000A710A610A610A610A610A61086108610B3
:102CB000C718B1217019B119D121D121F221332ABC
:102CC000132AF229F3295432953A164B7853F963B3
:102CD0009A741B851A85D97CB03A4E2A2E2A0F2A5F
:102CE0002F2A0F2AEE210F2AED290D2AD1427774BF
:102CF0004F322F2A913AB13AB13A534BB353BA9D5E
:102D0000DB9D7253D13AD45B3143798D135CB99D0D
:102D10005FDF357C8F3AF13AD132D12AD232B232EA
:102D2000F342124BD463BDCE5EE77BC61595FDD64C
:102D3000527CCC52294A042924292429C318611021
:102D4000410841084108410841084108210841085B
:102D50002100440851421532D429922992299129FF
:102D60009029AF29CE292E3A11538F42CC29EC2934
:102D70002D3ACE4A506375847584D4737363F152CF
:102D80004F42ED31AC298B298B216A212A19E91890
:102D9000C810C810C710C710C710C710C710A71099
:102DA000A710A710A710A710A610A610A610A6106F
:102DB000C718D2219119B119F221F221122A532AEE
:102DC000543233325432B53A164BB85B19647A64D4
:102DD0009A6CFA74BC951CA632430D222E2AEE2959
:102DE0000F2A0F2AEE29EE29EE29CD292E32945BE7
:102DF00016642E2A9032B13AB03AF13A524B188505
:102E00007CB69674903A534B324B3885925351535B
:102E10007FE79AB5D052F142F232D232B232D33A8F
:102E2000F242324B1BB67BC6F9B59BCEF4941CD74D
:102E3000327CAB52E841C320C2200321E318821048
:102E40004110210841084108210041084208410879
:102E500042004A21F452963A553AF431F331B129FD
:102E60004D212A19E7106D3A0A32E51005110619AD
:102E7000472167210F5B958C968C347CD4737363E8
:102E8000D1524F422E3AED31CC298B294A210919D2
:102E9000E810C810C810C710C810C710C710C71056
:102EA000A710A710A710A710A710A610A610A6106D
:102EB000E718F221B119D2211222332A5332743287
:102EC0009432943AF6425753B85B3A747A743A5C47
:102ED00079641A7DBB8D9FD79DB61143EC29ED29EE
:102EE000EE29EE29EE29CE21AC218C21CD29AC2171
:102EF000B453534B4F2A6F3290324E322D2AD45B4B
:102F0000DEC6D363D142ED294E32598D9253AA29A0
:102F1000BED65CD68F4A2E324F2A0F220F2AEF29B7
:102F2000ED29188D7CC62F5B56A57AC6527CDCD65F
:102F3000B06BCB52A639A220C220E320C318A2183E
:102F4000611041104108400841082108410841082A
:102F50002621F573B76B1743D642543AF2314D210F
:102F6000870844004719CC4AE4108208C410451968
:102F7000A410E518F273958C547C75845584D47331
:102F80005363F152904A4F3A0E32CC316B210919FA
:102F9000E810E810E810C810C810C810C810C81011
:102FA000C710A710A710A710A710A710A610A6104B
:102FB000E718F221D219F2213332B33AD342B342A5
:102FC000F54216437843DA53DA53B95BBA4BDB4325
:102FD0001D6DBD8DD453D67C7EDFFDCECD4A6621DE
:102FE00087216821481949214921E7102819061924
:102FF0006721906B2B426829AA31CA3107196821D1
:103000005BC6337C2B3A26194621D48C517C862909
:103010005AC65EE70E5B2621472127216729262114
:103020000E6BBBDE2E73A739D39C59CE1084DBD632
:10303000718C8A5AA64104310339C228A128A228DA
:103040008120812061184110410841004100420067
:10305000CE52F794F47352638F4A2D422C42C5101E
:103060004200A3108F63293A410004198629A72939
:10307000C3102D5BB394728C128495949594558CE7
:10308000D3733263F15AB04A6F42ED318B212A1962
:103090000919E918E918E910E810E810C710C71075
:1030A000C810C810A810A808A710A710A710A7102C
:1030B000E718F221F221132A7332D442154B154B33
:1030C000364B3743584358433843584BD9539B6486
:1030D000FA74F974B774104B9263FDD69CC6C92973
:1030E00083086200830863084308430043086208BA
:1030F00042002621AC4AE5180619A9290619420002
:10310000D06B97AD6721A8298208317C8F6BE83995
:10311000F8BD9FF7B494E518062106210621A831D1
:103120007AD673946631873992949AD6718CDBD6AD
:1031300055AD2C6B495AC751654924392339C228EA
:10314000A228611861186110410861084100A410AB
:10315000958CF373AA312819A5108E4A8829630823
:1031600062082A42938CA30862088629AB4AC318D6
:103170008A4AD3945184D073738C748C13843484AE
:10318000F47B93735263F152B04A2E3AAC294A1938
:1031900009190A190A190919E918E810E810E810BC
:1031A000C810C810C810A810A710A710A710C710E3
:1031B000E818F229132A5332943AD542154B164B8C
:1031C00016431743D632F6323843D9537A6CDC9D16
:1031D000DB9DD77C3BAE7CBE9684599DDFF79BC6BA
:1031E00090636E636F6B4E632E6B4F734E6B0C630D
:1031F000EC5A4A42B48CF2730E53B06BB06BAB4ACC
:103200002B63DAD64F636B4AE8398F6BAF73AF73BA
:10321000B7B57ACE3AC68831E5184629672957AD41
:1032200057AD4629663186317294BBD6B394BBD66E
:10323000B7B514AD4D7B285A654944416441E3302C
:10324000C228A220A2208218821061088208C831F8
:1032500057A5EA3943084200AD4A748CC4104200B5
:10326000C4187284662962082521CC52252166295A
:103270007394938CF07BAF73D17B90734F635063E7
:10328000B373D373B3735263B0524E42CC314A21FD
:103290002A192A192A192A190919E918E818E81007
:1032A000E810C810C810C810C810C810C810C7103F
:1032B000E8183232733AB442B442D54A164BF64259
:1032C000D63A994B1A5C1A5CF9535A647C8DFED637
:1032D000BFE77FDFDDCEBDCE7FE71FD73CBE9FE7D8
:1032E000DFF71DDF9BD6DCDEBCE6DCEEDCE61CEFA8
:1032F000FCE61DE7FDDE7FEF3EE73EDF9FEF3CE7AC
:103300005CE7DEF71DE73DE71DE7FCDE5DE71CDF60
:103310005DE73DE79FF77ACE77B5B7BDD7BD5EEFE6
:1033200036ADB07B4E730D6BB39CBBDEF49CBBD64D
:10333000B7B518C6CF8BCF93A64924396549A65196
:103340000339C328C328C320C220C218C318AF73CF
:10335000318483106208452119BECC5221006108D6
:103360000C5BCB52410004198A4AE839E418328CCC
:103370009394117CD0738F738B52C83987312B4251
:103380003063926BB373B373F15A4F42ED316B21DB
:103390004A214A212B212B210A1909190919E91857
:1033A000E910E910C910C810C810C810C810C8101A
:1033B0000819723AB442F44AF54A154B374B374B69
:1033C0001743B9535D85FF9D3C851C7D3EAE9FEF45
:1033D0009FE7FFF7FCD6B163F78C7DC6767C2C3A6D
:1033E0005BBE5BC6AD520621263167396739094A93
:1033F000094AA73909422A421284F59CB8ADDCD6A5
:10340000349D76ADDCE69394939435A539C618BE09
:10341000FCDE3AC67EEF5EEFFCDE9FF7BFFF7EF775
:103420003EEF5EF77EF75DEF7EF7BFF71CE79EEF9E
:103430001DE7FCE6729C8E8BE75124414549286AC2
:103440000439E338E330E328E3200321853134A550
:10345000294A6210A3101074F7BD6529410886310E
:10346000F39CA210E318CB52EC5AE4184E6BB49CB8
:10347000328CF07B6E6BCC5A87318310C41867296D
:103480006C4A0F639273B373126390520E3A8C2995
:103490006B214B214B214B212B192A190919091991
:1034A000E918E918E910C910E810E810C810C810A8
:1034B0000819923AF44A15531553365378537853F2
:1034C000584B9853FB7C1EA63EA63EA6DFC65FE780
:1034D0005EDF7EE7BFEFFDD6178DBA9D9DC6D78410
:1034E000CF4A1BB659A508212100210041084108F7
:1034F000C31862104108621005219494337C169D14
:10350000369D2E6319CE494AE3184942AF73CB5218
:10351000159D2E63D8B59BD6ED6239CE739C0942BA
:103520006B520D6B6E7B729CF8C55DEF3DE79EF7AD
:10353000DFFF9EF7D3A449624962C6598659E76105
:1035400024412441E330A220232924294C6B929C5E
:103550002429A318A73917B64C636529A210D29461
:10356000694AC3188A4A2D632521AC52B49C528CF7
:103570001184AF73CC5AA731821041084108C41896
:1035800067294B4A1063316B3263F15A6F42CD3178
:103590008C296C296C214C212B212A212A190A19EA
:1035A0000919E918E918E918E910E910C910C81053
:1035B0000919D34A1453755B765B775B985B985314
:1035C000B853596CD97C7B951CAE9EB6DFCEDED647
:1035D000FED65EDF5EDFDFEF5EDFD9AD7CBE9FDF54
:1035E000BDC69784568437844E3A4819A5086308A7
:1035F0006308C41842088310A4102B3A78A5F2730C
:10360000D9B598AD18C68A5286316529307C86298D
:10361000D8B5F59CB4945ACE19C656AD6631E4209F
:10362000252945296531C741308C99D614A59AD6EC
:103630007AD618CE6E7B495A085A65514451445186
:1036400023410339E330E3282431A639B29CCB5A15
:10365000C318C318B29C107CC731C7318E6B149D40
:10366000C318C7318E6B8629294256A57394528C94
:103670008F73AC5AC8398210620841086208620828
:10368000C418A8312B42AE527273316BB04A0E3A55
:10369000AC298C296C216C214B212B212A190A1968
:1036A0000A190919E918E918E918E910E910E810E8
:1036B000091935533453755B9663765B775398538A
:1036C0001964B97C5A9DBEC63CB63CAEDECE3FDF27
:1036D0003EDF1DD71DDF5EE7BFEF7FE77CC6FDCE77
:1036E000DFEF3FDF1995377C1974D96B575B934A2D
:1036F0008D296C296B29A610E610E610505BF58C1D
:10370000D58CDCD69ACE6D6B073A241910748629B5
:1037100076A5159D2A42B8B53EE7E9394629052127
:10372000042924292429C639308C38CE14A579CE11
:1037300079CE76BDCF8BAA6A286265594451E240A2
:103740000341C230E23003314431AA5AB39C4529C7
:10375000C318284295B5E3188629928C79CEC731D3
:1037600024214D634942A729359DD494528C8E73F0
:103770000D63E841A31062086208C3188210610853
:10378000C418C4184729B273D37B116BF05A8F4AFF
:10379000ED398C298C296C296C214C214B212A195B
:1037A0000A190A190A190A19E910E910E910E910A9
:1037B0000919354B7553545B555BB763B85BD963D7
:1037C0009A7C787C199D5FE73BBE9A9D1CAE1ED704
:1037D000BFEF9FEF3CDF1CDF3DE79FF79FEFDCD69D
:1037E0001EDFBFEF7FE79AAD59745A74D863F96B47
:1037F000196C9763965BF34A503A4E322D32389DDE
:10380000958C78AD1CDF928CA63186293074493AAC
:1038100076A5D8B52E633AC6BCD6883126210521B7
:103820000421A639E741C6410F8C38CE13A579CEC5
:1038300079CEF3A4EF8B89624862855944510341E4
:103840000239E230E230E3286539EF83EC6204218B
:10385000042134A5284282088E6B1CDFD073A3108C
:10386000CC52AB4AA7299384159D317CAF73EC5A97
:10387000C839A31882106208C318C3188210C3186D
:103880004108A3102E6BCE5AEB418D52105BF052C3
:103890004E4ACD316C296C296C216C214C214B2175
:1038A0002B212A190A190A1909190919E918E918FD
:1038B0002A19154B5553545B555BB763396CBB7C68
:1038C00059749142768C1FE77AA59B9DBB9D1BAED8
:1038D000FDD6DFF7DFF73DEFDCDE1DE79FF79FF753
:1038E0001DDF3EDFDFF79FEFDBA5B87CFA841864AD
:1038F000396CF85BB8531964186496533353B78422
:103900001BBE558C7BC65AC687290832F0738E635E
:10391000D8AD77A519BE77AD5AC6CD5247296629CD
:10392000C318494A7194C639CE83F7BD14A579CE20
:10393000DBDE91941094485A275A6451444903415C
:10394000E238E230C228E328C741518C6629E418E6
:103950000C5B5184C210283A3DE7B7B5C410C8319A
:103960000D5BC831527C97A5527C8E6BEC5AE839BE
:10397000C318821082100421C3188210C318410892
:10398000E3180D638731A31046292B42AE52AF5284
:103990006E4AED398C296C296D296C216C216B21C3
:1039A0004B212B190A190A190A190A19E918E918D9
:1039B0000A19154BD442345396635974DB7C5A6C04
:1039C000F54A8D29D8949ECE546379747B959A9D3F
:1039D000DAAD9BC69EEFDFFF7EEFDDE61DE79FF7CA
:1039E0009EEF3DE7FDDE9FEFBFEF3CB6B884B984A4
:1039F0007A741A64DA53FA533A5C5A64D75BD66322
:103A0000DDB5BBB51795FED64F5B6721527C2D5BAC
:103A10007AC6D8B5BCD6AC52738CF59C0621E83971
:103A2000E418CB5AD7BDA6396D6BF7BD34A5BAD60D
:103A30007DEF518C308C495AE75165492441E23879
:103A4000C230E228C12003294D732D6B0521862940
:103A5000B394C631032159C63DE7294225210D5BA8
:103A6000293AB38C5AC6527C8F63CC52C839C318DA
:103A7000821082100421E4188210E3186108863154
:103A8000EB5A252982106208E4188729EA394C424A
:103A90004D4A0D3AAC318D318D298D298C216C2107
:103AA0004C212B210B190A190A190A190A190A198A
:103AB0002A21D542D4427663F76B7A7C5A74D64277
:103AC000F229AE297BAD3EC6313A5332F9635A959D
:103AD000BAA5B9A53ABE1EDFBFF7BFF71DE73DDFA8
:103AE0005DE77DE71CDFBBD65EE79FEFBECEFA94B5
:103AF000797C3A6C3A641A5C3A5C5A641964396CA1
:103B000018743EBE1995189579A5A9294F63327C82
:103B10003DE79BCE77ADCC522E63D8B5C83187290F
:103B20004A42AB52B6B508420C6375AD76ADFBDECA
:103B30009EEFF07BEF83495AC74985490339E22854
:103B4000C228C228A1184431318C863166298E6B77
:103B50008D6BA210EE83DFF7718CC3188B52AB52C2
:103B6000F49C9BCE73846F63CC52093AC418A310A3
:103B7000821025212521C318E318A2100842AA5A51
:103B80004529C318A210C318A31004218729A931FD
:103B9000CB39EC39CD31AD31AD298D298D296C2151
:103BA0004C212B192B190B190A190A190A190A1970
:103BB0002A21F542164BD773FA949A84F742142AB5
:103BC000F329F2311CC6BCB5533AD3215532D75B29
:103BD0001A8DBA9DB99DF9ADBCCE9FE7DFF77EE7A0
:103BE0005DDFBFEF3EE7DDD67BCE1DE79FF7DFD67B
:103BF0003B9D9A7C3A6CFC7CDB747A64BB747A746F
:103C000079741B8D5EC677847684716B8D4ABCD6C1
:103C10005EE7F49CD07BD49C294256A58F634A4230
:103C2000AF63CC4AF494AB528A4A55A539BE5DE7DE
:103C30007EEFCF7BCF7B4952854186410331C2283D
:103C4000C220C120A118074A2C6B66294A4A518C10
:103C50008631C5393BE738C66529E7394D6311849C
:103C6000BBD656A5F173ED5AE939E418A310A31891
:103C700046290421E418A318E3186A526A52042161
:103C8000C318E318A210410841086108C4100621B6
:103C900048296A298B31AD31CE31AE298D296C216D
:103CA0004C212C192B192B192A190A190A190A192E
:103CB0002A21F7423753BA84BFC6FFCE5B8DB65B6D
:103CC000713AB34ABDD6FA9C95425632152A5432FF
:103CD0005753FA849B9D799DB9A55BB65EDFDFEFF4
:103CE000DFEF5DE79FEF5EEFFDDE5BCEBCD67FEFE3
:103CF0001FDF5A9D9984BC9DDFBE3C85DB74FB7C35
:103D0000FB7C9A749DA51EB6577C968CD2735EE799
:103D1000BCD60D63D07356A5AB4A5284B7ADD073F1
:103D2000948CA7290C5B307C6A4A96ADBBD69EEF7B
:103D30005DE7107C0F84495245316539E328A220A4
:103D4000C220C2208118695AE741494A8E734C63E8
:103D5000C318B5B55CEFEB5AA631EB5AEF73BAD680
:103D600096ADB8B5D9B5D16B4721630863088729EB
:103D70004529C3106208E318694AA6318210A210CF
:103D8000A210410800002000200040002108620825
:103D90008410C51827216A298C29CD31CD31AD2950
:103DA0006C214C214C192C192A212A210A190A1993
:103DB0004A21184B3853F8637B8D1ECFBFE71DD7C0
:103DC00078A5978CFFDEDA8C9542753A763A5732B1
:103DD0003632F74A7A747B9D9A9DB99D1AAEFCCE15
:103DE000BFEFDFF79EEFBEF75EE7DCD69BCE9BCE44
:103DF000BFEF7EE779A5188D7EBE9FBE3B8D1C8DE3
:103E00001C8DFB84FC841FAE9C9D777CDAB59CCE18
:103E100036A58F6B2E5BF594B48C6F635ACE77AD5D
:103E2000F17B6629283AF7B50C5B35A51CE7BEF790
:103E3000FADE2F7C708C084A46314531C320C220FF
:103E4000A218A2188218C749C741494AB194021959
:103E50000A5B5DE7F39404218A526D6B58C617BE66
:103E60009ACE9FE7FAAD136CAE4227198821A8219C
:103E7000041961082521694A65298210C318A21016
:103E8000610841084108400820002000210821085D
:103E900042088310C418262168298A29AB29AC2935
:103EA0008D296D214C192C192B212B210A210A193E
:103EB0002B21575378539853985B3A749C9DBFCEEF
:103EC0007FE75FE7BFEFF994B452B652563AB73284
:103ED000B73A753AB44238745B9D7AA5BAA5D9ADA4
:103EE0007BC67EE7DFF7BFF7BFF73DE7DDD65BCEEA
:103EF0005BC67EEF7EE7BAA55A959EBE9FBEDC9D4F
:103F00009C9D5C951C8D7C9D5EBEBBA5BECE379DE9
:103F1000127CF1732E5BF494159DD4945AC697AD20
:103F2000AC5205216D63BAD6083A11843DE7DEF73D
:103F300099CE708CF39C495287392529C320C22021
:103F4000C220A11803296639284A51942B63A53150
:103F500078CEDBD6A73128424D63B6B599CEDBD6F5
:103F6000FFFF5ABEC92989210F539163E929051919
:103F7000A308E73949424529C318E318A318610883
:103F80004108410820084108410841082108210052
:103F9000210041088308C5180619272169218B29AA
:103FA0008C298C296C216C214C212C212B192B194B
:103FB0004C21B75B9753795339531953595BF86BBD
:103FC0005A9D1FD7DFEF3FDFDCB5D87BD552D63AFD
:103FD000D642B53A743A733AB7633B9D7AA59AAD27
:103FE000DAADFAB5FDD69FEFDFF7DFF75EE7DDDE8E
:103FF0007BCE3AC63EE77FE71CAE5A951FCF3FCF38
:104000001DAEBCA57C953B95FDAD3FDFBECEB9ADE9
:1040100074840D53B48C4E63B38C19BEB8B5B8B567
:104020008C4A7284718C79CEAA52F07B1CE7DFFF38
:1040300078C6D29433A5CB5A66310429E320C2183E
:10404000C218A1182429084A2D73F3A4E73913A52F
:104050009DEFAF7BC7392D63149DBAD6BAD6FFFF4B
:10406000DBD66A42A4084719B163AD422519E410B2
:10407000293A28424521E318E318821061086108B3
:1040800061084108410841084108210041084108F0
:10409000410841084208620883080619482169213D
:1040A000492129194A216B216C214C214B212B19C3
:1040B0006C21775358535953394B5A4B5953795BA9
:1040C000975B7B9D5FDF3FDFDFEF7FE7DBB5F7735C
:1040D0001553F54AB63A953A953A5753BA8C7BAD93
:1040E000BBADDAADFAAD9CBE5EDFDFF7FFFF7EEF62
:1040F000DCD69CD63BC6FDD67FDF9CC6DBA51FCF9A
:104100001FCF5DB6DCADBBA51DAE5FDFDECEDAAD89
:10411000579DE931B38CAF73F49CF8B5B8ADD9B500
:104120001ABEF17BA731B6B5107CCF733DE7DFF740
:1041300058C6339DF39CEC5A87310421C318C31829
:10414000A218A2188539495A15ADAB5A6D6B7DEF8F
:10415000D7BDC739ED62718C9ACEBAD6DEFFDAD6FA
:10416000AA4AC310093294846C42051946216A4256
:10417000E83145294521C318821062088210A3182E
:104180006108410841084108410841086108610887
:104190006108410841006208A310A410A410A410F3
:1041A000C51007192719282129214A214A214A2106
:1041B0006B21374B584B784B584358435843584B17
:1041C00078533C8DDDA57A9DDECE9FE7FFF75FE754
:1041D000DBAD18743653D642B542B53A3653997CA6
:1041E0007B9DDBA51BA61AA63AB61EDFBFEFFFF725
:1041F0007FEFBCD69CD65BC6FDD69FE7BDC63BB65F
:104200003FD75FDF5CBE5DBEBEC6FFCEDFCE7DBEEC
:10421000D9AD327C938C14A5F07B76AD98AD9CCE55
:1042200036A56B4A8731F49C76AD4D633CE7DFF7EA
:1042300058C674AD50846A4A6729E518C310C21085
:10424000A210C218A639CF83118C4A5259CEFBE670
:104250000C63AB5A6F7318BEBAD6DFFFDAD648428A
:10426000C3106A42569DCD52E5184621293A862947
:104270008629C731E41882106208620841084108A3
:104280004108410841086108821082106108410814
:104290006108C318E31882102100210021004200A8
:1042A00063088410C410C518E710E7180819081926
:1042B0004919374B37437743774356439743B84BB6
:1042C000984BFC7CFB84354BB65B3A957DBE5FE733
:1042D000FFF77FE71CBEBA8C775BF542B43A144314
:1042E000786C7A8DDBA51BB63AB63AB6DCCE7FE7A2
:1042F000DFF7BFF7DDDE9CCE7BC6BCCE9FE73ED7A7
:10430000BCCE5FE73FDFFED6FFD69EBE7DB6FFCEBA
:10431000BCC6D8B55184318CF49C3AC69CCE57A506
:1043200077AD0D638731AF7318C6AE73FBDEFFFF49
:1043300017BE33A5EB5AAB4AA9290619C410C310FE
:10434000C310E3180842B29C6A5210843DEF929465
:104350008A520C63B7BDDBD6DFF7FCDEAA52C2106F
:104360006A4A55A58B4AE418C831E831A73108429A
:10437000A731C31862088208821062086108210010
:1043800020008210E318E31862084108E318452969
:104390004521C31020000000200020002100210042
:1043A000410042086208831064086408A6080819DE
:1043B0008A21364BD53A1643774B574B5743B85360
:1043C000B8535D85BB741643164B364B7653F98450
:1043D0005CB67FE7DFF79FEF7DCEDA8C965BB33A72
:1043E000D43A586C5A95DBA51BAE1AAE3BB67CBED0
:1043F0003EDFDFF7DFF71EDFDDD6BCCEDCD69EE783
:104400005EE7DDD69FEF7FE7FFD6BEC61CAEFFCED0
:104410005FDF3DDF14A5CF7B5DEF9FF75EE777A5FC
:10442000F9BD2E63E9418A5259C6307C9ACEFFFF0E
:10443000B5B5D29CEA52117496843574CF4AE931ED
:10444000293A8529EF7B4D6BAB52DBDE18BECB5A88
:10445000CB5A35ADDBDEBEF71CDF8E6BA210EB5AFC
:1044600075AD494A0419083AE839A731494A8631F5
:10447000A2108208A310C310821041084108A3189B
:1044800045292521A21082104521E73986310421D2
:1044900061084108610882086108620862086208D0
:1044A000821082108310C31889296D424C3A4D3A0C
:1044B0000C3A1EAE3B8D5974975B16533653975B7F
:1044C000B85B3C8D7A6CF6421743384B374B564BF2
:1044D000D75BD9843CBE5FE7BFF75FEF7ECEDA944F
:1044E000355BB342B65B1A8DFB9D3BA63BAE3BB63C
:1044F0007BC6DCD69FEFDFF75FE7FDD6BCCEDCD610
:104500005EE79FEF7EEF9FE79FE7BDC69DC6BDC6F6
:104510009FE79FEF7ACEBAD61CDF1DDFBFF77FEF94
:104520003AC6538CAC5AE84138C6F39459C6FFFFDB
:1045300075ADD29C2C5B12749A9DBBA53574915BB2
:10454000AC42283A307C0D6335A5DBD6EF7BCA52EE
:10455000D294DAD69EF73CE73084C3180C6334A5B6
:10456000494A65294A4AE839E83908422421C318EA
:10457000C3180419E418A2108210E4200842C739B5
:104580002421C318A731084286310421610861083B
:10459000821082108210821082108210821082108B
:1045A0006210620862108210C9312B420619E510B0
:1045B000C4105FD71FD7BFC67EC6FCB51A9D377C17
:1045C000D76B9A7CD863B542D642F74AF742585324
:1045D00079537853B9635A7CBDB51FE79FF79FF7AE
:1045E000BED6B89434533553F87CDA953BA65BB607
:1045F0003BB65BBEBDCE3EDFFFF7BFEF3EDFFDDE6D
:10460000FDDE7EEF9FEF3EDF9FE75FDFDDCE1ED753
:104610005FE79FEFDFF77ACEAF73528456A5FFFFB7
:104620003DDFD9BD8C5A094AF7BD549D38BEFFFF06
:1046300034AD13A58E6BB1635A8D376C2E32AE42FA
:104640004A3ACF6B7184107CDBD676AD6D63307CDB
:10465000B9CEBEF75CE7928C65298E7314A58A5299
:10466000C739AA52C7310842C739E420E318E42009
:10467000C318C318C3180421494A8A522421C318F5
:10468000A739E8410421A21061082000410841082F
:1046900041082108200820082000200820002008C8
:1046A00020082000200020084108410800000000E8
:1046B0006208BB9D5DB6FFCE3FDF9FEF9FEF7FE7B8
:1046C000DFD63CB6787C1553F54A1653F75218538B
:1046D000395339537A5B9A63B96B58849BB5DEDEE4
:1046E0009FF79FF7BED6D98CF563B674B99D3BAEE4
:1046F0005BBE7CBE5BBEDCCE3ED7BFEFDFF79FEF7D
:104700007FEF5EE79EE7BFEF5EDFBFEF9FE73EDF35
:104710007FE79FEF9EF79ACE5184AB52938C7EE752
:10472000FFF7FDDE2F73EC6234A5549D79C6FFFFC1
:1047300034AD13A5EF73B263BC955553AD298E3AD2
:10474000AC42B38C718438C67ACE3184CF7359C6EB
:10475000FFFF5CE7D394A631EF7BF49C0842A631BF
:1047600008424529C7394521A210A210A210821083
:10477000C3182521E839AB52E420A318863108423A
:10478000E318610861082000200041082108210881
:10479000210021002008200020002000200020000F
:1047A0002008200820082008000020002000200009
:1047B0006108923A144B17743A9D3CBE1ED79FE78E
:1047C000FFEFFFEF9FDFBDC69BA5998C9873F85A4A
:1047D000D752185B1853795BBA63B963B86318741E
:1047E0003B9DBECE7FEFBFF71ED7B9A519959AA501
:1047F000FAAD5BBE9BBE9CC6BDC65EDF9FE7DFEF2A
:10480000DFF71EDF1DD7BFEFBFEFBFEFBFEFDFF753
:104810007EEF5EE79EEF5DE739C65184D7B59EEF28
:10482000FFF75EEFD9C5EC622F84539DBACEFFFF30
:1048300075B57194F073D363BD95144B8C29CB2956
:104840006F5BB28CB28CBAD6F49CF183F8BDDFF703
:104850005DE734A5083A107CB2942842494A294AB7
:10486000C739E7390421A210C318C318C318C739C0
:10487000494AAA52A63104218631E841E320610861
:104880004108611041086108610841084108410878
:104890004108410841084108410840082008200813
:1048A000200820000000200041000000000000005F
:1048B00061085332322A5232723AF24AF56BF88C5E
:1048C000DBADBDC67FDFFFEFDFF79FEFDED6BCB508
:1048D000998CD77377639863995B79537953995B14
:1048E000B96359743B9D3DC63FDFBFEF3FDF5CC6F8
:1048F0003BBEFAAD5AB67BBEBCC6DCC63ED79FE710
:104900009FE77FE7DCCEFCD6BFF7BFF7BFF7BFF767
:10491000DFF73DE73DE7BFF77EEFFBDEBEF7FFFFCA
:10492000FFF7BFFFFDEEAF7B5084749DBACEDFF77B
:10493000D7BD0F841074556C7C85144BAC296D4227
:10494000B38C918C38C639CE728C15A59FF77EEF4B
:1049500055AD6A4A728CB294CB520C638A52E841CC
:10496000C7392421E318E318E3182842AA5A6A52E7
:10497000E84165298631C739042161086110611059
:104980006110611041086110410841084108410867
:104990004108410840082008200820082008400855
:1049A00020002000200020002000200020004008DF
:1049B00061081222F2211222322A1132F129D02961
:1049C00011321453577C799DBBCE9DEFFFF7FFFF4B
:1049D0009FEFBDD6FCB5FB8CB96359537A539A53FC
:1049E000BA5BBA63F96B1A6C3AA53BCE3EE7BFF7E8
:1049F0005FE7DDD67CBE7BBE9BBEBCBE1DCFFDCEC1
:104A00009CC61DDF7FDF3DDF7EE7BEF7DFFFBEF721
:104A10005DEF7EEFBBD65EE7FFFFFFFFDEF75CDFFB
:104A2000DEEFFFFF7FFF76BD708CD5ADBACEBFF74E
:104A300018C6EF83517CF8843C75B242ED31D26BDD
:104A4000938C54A5BAD634ADF4A45EEF7EF756AD80
:104A5000CC5A7394328C4D63AE73CB5A494AC841D9
:104A60002429C318E31828422C63694AE841A7396E
:104A70008631863104216108821082106210611033
:104A8000611061086110610841084108410841084E
:104A900041084108410841084008200841084108F0
:104AA00040002000200020002008400820002008AE
:104AB0004108CF29AF21B021B121B121B121B121CC
:104AC0009019D121F129723A1453D76BB98CFDBDDD
:104AD0001FDF7FE79FE77FE7FED63DBE3A9518745C
:104AE000B863D96BFA731B745B7C7A7CFB8CFDA575
:104AF000FFCE9FDF9FE73EDFBBCEBCCEBCCE7CBEF1
:104B00003BA67CAEFCD6DFEF7EE7BFF7BFF73DE705
:104B10005DEF5DEF9EF7BFF7FFFFDFF7FBD6D394A6
:104B200039CEFFFFFFFFFBD6307C38BEFBDEBEF781
:104B300039C6F073F26BF9845C85302A4F3A747C85
:104B40009284F7BD38C655AD1CDFDFF79AC68F6B70
:104B5000B4949394CF7BAF736A4A6A4AC7390421ED
:104B600004210842AE73AA52C7390842A731452929
:104B7000E318A2108210821082108210611082103D
:104B80006110610861084108410841084108410875
:104B900041084108410840084008200841084108F0
:104BA00020082000200020002000200020002000FD
:104BB00061084A214B214C214D212D192D192E110F
:104BC0006F19B021D121F2293332743AD64A3553C4
:104BD000B663787C9BA59EC61FD75FE77FE71FD78C
:104BE0003DBE1B957A847A849B849B7CDB7CFA8413
:104BF0005A8D1BA6DDC67FE7BFF79FEF7BC6FAA5E0
:104C0000DDBEFEBEBBCE5EDFFFF7BFF79EEF1CE74B
:104C1000DBDEDFFFDFFFBFFFDBDE5DE75DE776ADFD
:104C200014AD5DE7FFFF9DE7349538BE3DE7BEF765
:104C300059C6317C915BF97C1B7DEF29D1423374DD
:104C40003595BAD659CE3DE7FFF75DDFF8AD569DF5
:104C5000D494318C6E73AB52494A66314529E83998
:104C6000AF73CB5AA7312842C7392521C318A318DF
:104C7000A210A210A210A21082108210611061086E
:104C8000610861086108610841084108410841085C
:104C9000410841082008200820082008200020089A
:104CA00020082000200020002000200020002000FC
:104CB0006108830863088408A508A610C710C810F7
:104CC0000A114C196D198F219021B121D221332263
:104CD0009432F53AF5427653997C9B9D3DB6DFCEF2
:104CE0003FDF7FE73FDF9DC6DBAD3A9D3A957B9D79
:104CF0009B9D7A957A9D1BB6FED69FEFBFEF5EDF38
:104D00007CBE5BB65EE73EDF9FEFDFF7DFFF7EEF47
:104D10001CE73CE7BEF7DFFFFCDEBAD69EEFBBD652
:104D200076AD7ACEDFF7DFF738BEB6B51CE79EF773
:104D300079CE5284705BB87C1B7D5132D56BD584A3
:104D400018B6FBDE7EEFFFFF5DE718B6D7ADF49433
:104D5000327C4E6B6A52E8398631E7390C638E73C8
:104D6000C7390842C739E418E318A310C318C31899
:104D7000C318A210821082106110610861086108D6
:104D8000610861086108410841082008410841089C
:104D9000410841084108410841082008200841080D
:104DA000410841084108410841084108410861089B
:104DB00082104100000001000100010022002300D8
:104DC0006408A608C8102B114D196E199019911975
:104DD000B221F3215432B642F64A1653976338741F
:104DE0003A951CAEDEC65FD77FE73FDFBECE7DBE05
:104DF0001CAEDBA5DBAD1CB69ECE1BBE5FE77EE71F
:104E00009FE7DCCE5EE79FEF9FEF9FEFDFF79FF717
:104E10005DE739C659CE5DEFBEF73CE7DBD69FF7BD
:104E20009BD639C65DE7FFF7FBD6D7B5FBE67DF726
:104E3000BAD6D494B163F984DA74134BB784369537
:104E40009EEFDFF7FFFF1CDF96AD769D3595317C39
:104E50000D5B4A4AE8412942EC6210846A4AA63155
:104E6000C739E318A318E318C318C318C318A2104E
:104E7000A2108210821082108210821061106110C4
:104E800061106110821082108210821082108210D4
:104E900082108210A210A210A210A218A210A218B2
:104EA000C318C318C318C318E318E318E318E318AA
:104EB000242161002000000000000000010021000A
:104EC00022004200430064008608C8100A192E21FF
:104ED000702171299129D331353A76429642F64AAA
:104EE000364BB65B786C5A851CB6BECE5FDF9FE74B
:104EF0005FDFFED6BDCE9ECE7ECE7AB57DCEBECE57
:104F00007BBE3ED7BFEFDFF79FEF9FF7BFF75EE7B0
:104F10009FF79EEF59CE9AD65DEFBFF73DEF3DE785
:104F20003EEFFCDEBBD6DFF77DEF7AD6BADE7DF74B
:104F3000BAD655A5B163DCA51864F24A18953DDFD1
:104F4000FFF7BEF7FCDEB8B5B7B576A593848F63DF
:104F50004E634E6BD07BB2948E73C7398631E418A2
:104F60002421863165290421E318E318C318C318E6
:104F7000E318C318C318C318C318C318E318E318F9
:104F8000C318C318A218A218A218A218821082105F
:104F9000821082108210A210A21082108210821041
:104FA0008210821082108210610861086108610815
:104FB000821021000000000000000000000000003E
:104FC00000000000000001000200220044088810D8
:104FD0000B21D039534AF55A976B197C7A84DB8CB4
:104FE0003C959C9DBDA59C9DDCAD5CBEBEC6DECE49
:104FF000FED63FDF7FE75FE75FE77DCEFBBDFED6F6
:105000007CBE178D57A519BE7FEFBFF7BFF79FEF87
:105010005EE77EEF9FF71CE7BBDEFCE6BFFF3DEFE0
:105020005EEF9FF7DBD67DEFBEF71CE779D67DF705
:105030009AD6B7AD75741DA6B753F24A9DCEDFF769
:10504000BEF75CE77ACE19C6B7B576A51595369D3D
:10505000F9BDB7B59394694A45290421E7398A52C5
:10506000284286312421C318C318A210C318C318BC
:105070008210A210C318C318C318C318A21082103C
:105080008210611061086108410841084108410827
:1050900041082008200820002000200820002000CF
:1050A0002000200000000000200020002000200040
:1050B0006108E939EA394B4AAD5A2F6BB07BF0836E
:1050C0007294F4A435AD76AD97B597B5B9B57AB508
:1050D0007AB539ADF89C978C357CD473D473D5737D
:1050E000367C98849884988C9884977CB77CD884F4
:1050F000F88C199579A51BBEBCCE3FE73EE75FE76C
:10510000DDD6B9AD8D520A42B173F9BD5EE7DFF766
:10511000DFF79FEF3DE73DEF7EF7DBDE1CEFBFFFE4
:105120007EEF9EF75DE71CE7FFFF9EFFFBE69DF726
:105130009AD65ABEBDC6BC9D163BB56B7FEFDFF756
:105140009DEFBAD6F8C5D8BD39C6DBD6BBCEF8B50B
:10515000F59C6B4A25294529C739E7396529662910
:105160000421E318A210A210A210A210A210A210F3
:10517000A210C318A2188210821082106110610858
:105180006108610841084108410841084108410897
:1051900041084108200820082000200820002000A5
:1051A00020082008200020002000200020002000EF
:1051B0006108FCE6DCE6BCDE9BD63ACEB8BD57AD56
:1051C00015A59394CF7B0D636A4AC839A831462947
:1051D0000521C418C310A310A308A308A308A31093
:1051E000A410C5180719AB318F421253735B945347
:1051F0005353324B114B314BEF4A4F5B537CB494BA
:10520000BCD65EEF98B50F63AD52D59C169D3ABEE5
:105210009FEFDFF7BFF71DE73DE77EF75EF75EEF35
:10522000BFF7DFFFBEF7BEF7DFFFFFFF5DF7BEF79B
:10523000DBD65EDF5FD79C95B432B4635FE7BFF720
:105240001BDF38C6F8BDBCD61DDFBBCE76A56E63AE
:105250002A422A42AC5A0842A731A6318631252972
:1052600004210421E318C318E318E318C318C31872
:10527000A210A218A2108210821082108210821036
:105280006110611061086108410841084108410846
:10529000410841082008200820082008200820088C
:1052A00020002000200020002000200020002000FE
:1052B0006108484AA6392529C318821062084208A5
:1052C0004208620882088210C318A318A310A21013
:1052D000A210A210C210A210A210C210C310C310BC
:1052E000A310A41084088408A7100A198C21ED29A2
:1052F0008F3A314BB253104BCA298821A829462135
:105300008B52318CF6A41EE7F9BD77ADF9BD77A5B8
:10531000B8ADBCD65EEFFFFF7EEF3DE79FF7BFFF66
:105320009EF7DFFFDEFFDEFFFFFFFFFF9EF7DEF7EA
:105330005DE79FE73FD79C8D3222367C9FEF9EEF43
:105340001BDFDBDE1DE7FCDE7ACE76AD728C52848D
:1053500032842E630942694A2942A73965292521E9
:105360000421E318E318C318C318A210A210A21056
:10537000A2108210821082108210821061106108C7
:105380006108610861086108610861084108410815
:105390004108410841082008410820082008200051
:1053A00020002000200020002000200020002000FD
:1053B000610861084000610862088208A310A31018
:1053C00082086208821061084108410841086110A2
:1053D00082108210A210821082108310A310C410B9
:1053E0002619CA292D3A2D32EF31313AD24A735B50
:1053F0007574D9A5BCC6DCC67BBE98A5169D127C6B
:10540000B073528CCD5AF59C33849073D59498AD7B
:10541000B8AD7BC6BCD63EE7BFF7DFFFBFF7BFF72F
:10542000DFF7FFFFFFFFFFFFFFFFFFFFFFFFFFFFB4
:10543000BEEFBFE7FECE3A85322AB78C7FEF9EEFF4
:105440007DEF3DE73DE73ACE77AD56A5B3948F6B40
:10545000ED5A8B522A4AC739863125290421E3188F
:10546000C318C318A318A2108210821082108210D1
:1054700082108210821082108210A218C318C318E2
:10548000A218A210A21082108210611061084108B7
:105490004108410841084108410820082008200827
:1054A00020082008200020002000200020002000EC
:1054B00061086108200000000000000000000000FA
:1054C000000020002000410841084108410841082F
:1054D000410821002100210842086208630883086E
:1054E000E510A9294C3AEF4A5353F66BF9941CB6D0
:1054F000DED67FE7BFEFDFF7BFF7BFEF7EE75EE700
:10550000BCD67CCEF9BDB8B55AC633844B4A8C4A5A
:10551000906BB48C98ADBBCE5EEFDFF7DFF7DFF7B3
:10552000FFFFFFFFFFFFDFFFDFFFDFFFDFFFDFF733
:10553000DFF7BFE77CBEB884313279AD9FF79EEFCD
:105540005CE7BAD6D8BD36ADB49431846E6BEC5AF4
:105550004A4AC839663145290421E418E318E41899
:10556000E418C318A310A310A310C318C318C318BA
:10557000E318E320E320E320E318E318E318E3183B
:10558000C318C318A21082106108410841084108DD
:105590004108410820082008200820082008200091
:1055A00020002000200020002000200020002000FB
:1055B000610861082000210041006108610841087C
:1055C00041004100400041000000010083086721C4
:1055D0002A3A4F63738CD59C16A557AD77B557AD56
:1055E00037A557A5579DD9ADDDCE1FDF3FDF3FE77C
:1055F0001FE7FDDEBBD6DBDEBAD63CDF5EE77FE72A
:105600007FEF9FEF7FEF3EE75FEF7FEF7BCEB8B599
:10561000D594906BD173369D7BCE3EE7DFF7DFF7F5
:10562000DFF7FFFFDFFFDFFFDFFFFFFFDFFFFFFF32
:10563000FFF7BFEFD9ADD46B303A3BC6DFFF5DE774
:10564000DAD659CE16A5949411844D6B8A4A084235
:10565000873166318731462945292529252945295C
:10566000452945296629452945294529242104211B
:105670000421E320E320E318C318A210821061087C
:105680006108610861086108410841084108410852
:105690004108410820082008200820082008200090
:1056A00020002000200020002000200020002000FA
:1056B0006108620801000100210061088210821067
:1056C0008210A310E418E410882134741BAE9CC629
:1056D0009CC6DDD63EE73EE73EEF5EF73EEFFDE6D9
:1056E000BCDE7BD65BCE9CD6BBD6BBD69BD69BD630
:1056F0007BD65AD65ACE3ACE5ACE7BCE7BCE9CD6CD
:10570000FDDEFDDE1DDF3EE73EE73EE7BFF73EE79D
:10571000FDDEFDDEDCD67BC69BCE9BC6DBCE7EE708
:10572000BFF7DFF7DFFFFFFFDFFFDFFFDFFFFFFF79
:10573000FFFF9EF7B8B5358C1AA55FEF7EEF9AD6BE
:1057400075ADD39412847073ED62EC5AEB5AAB5A78
:105750006A52494A494A494A0942294A294AC839A2
:10576000A731A73966314529452925290421C318C0
:10577000C318C318A218A21082108210A21082109F
:105780008210611061086108410841084108410820
:1057900041084108410841084108410841084108C1
:1057A0004108410841084108610861086110611021
:1057B000A2184208010001002108210841084108FF
:1057C0004108410042006300EB291464104BEA29B0
:1057D0006719261967298731A839C841C841A839EE
:1057E0008839C9410A4A2C4A0942E741E741E84160
:1057F000094A2A4A4B4A0B422B42EA390A422A42B8
:105800004A4A8B526B424A42AC52ED5A33849BCE89
:10581000B8B5F69CF9B53EE7DFF79FEFDCCEBBCE1F
:105820003DDF7EEFDFF7FFFFDFFFDFFFDFFFFFFF83
:10583000FFFFDFFF5EEF5CD6BBC5DDDE9BD679CE1A
:10584000D6B535A536AD57AD77B5B7B596B555AD27
:1058500015A535AD35AD35A535AD35AD15A5D49C02
:10586000528CAF7B0D638A52E7396631452924217A
:105870000421E420E320E318C318C318C318A218B6
:10588000A21082108210821082108210A210A21028
:10589000A210A210A210A218A218C318C318C318ED
:1058A000C318C318C318E318C318E318E318E32098
:1058B0002421621042088210A318C318E418E420BF
:1058C000E318E418042104210421E420E420E4186E
:1058D000C318C318E418E418E418C418C310C41893
:1058E00004194629662905210421052125210521C0
:1058F000052105212629262126296729C831E831D5
:10590000083A083AE8392942E9414A4A4B4AD073F1
:10591000B7B573949BD6DFFF9FF77ACE579D97A5B7
:105920003AC63DE79EEFDFFFDFFFFFFFDFFFDFFF50
:10593000FFFFBFFFB7BD0C630C6BD8BDF8BDD4949F
:10594000F1836E732D6B2D6B2D6B2D6BEC626A5298
:10595000294A294A084A284A294A69528A5A0C631C
:10596000F083F49CB7BD18C6D8BD56ADD49C108446
:105970000D632A4267290521E418E418C318C318E7
:10598000A318A218A2108210A210821082108210F6
:1059900082108210821082108210611061106108E2
:1059A000610861084108410841084108410841086F
:1059B000611041080000000000000000000000002D
:1059C000000000000000200021002100210841000B
:1059D000410041004108410841084100410082085E
:1059E000A31062084108620862086208621083100E
:1059F00083108310A318C418E418E418C4180419F9
:105A0000252125210521052125292621C939AC5229
:105A100056A5BFF7DFFF7EF75ACEB8AD7BBEDCCE12
:105A20007EEF9FEFDFFFFFFFDFFFFFFFFFFFFFFFC7
:105A3000FFFF9EF719C6F4A4AF7BF083528CCF7B97
:105A4000B07BD07BD07BAF7BCB5A4952294AE8410F
:105A5000A739A63986396631452924290421E4204D
:105A6000E420E418042166298A4A118476AD39C6F7
:105A70005ACE39C656A5D0732942E418A310821015
:105A800062086108410841084108410820084108AE
:105A900020082008200020002000200020002000F6
:105AA00020002000200020002000200020002000F6
:105AB0006108620841086108820882108210A21001
:105AC000A2108210821082108210A310A310A310C3
:105AD000C310C310A310A310C310C318C318E4202D
